{
  "contractName": "Certificate",
  "abi": [
    {
      "inputs": [],
      "payable": false,
      "stateMutability": "nonpayable",
      "type": "constructor"
    },
    {
      "constant": true,
      "inputs": [],
      "name": "auditor",
      "outputs": [
        {
          "internalType": "address",
          "name": "",
          "type": "address"
        }
      ],
      "payable": false,
      "stateMutability": "view",
      "type": "function"
    },
    {
      "constant": true,
      "inputs": [],
      "name": "version",
      "outputs": [
        {
          "internalType": "uint256",
          "name": "",
          "type": "uint256"
        }
      ],
      "payable": false,
      "stateMutability": "view",
      "type": "function"
    },
    {
      "constant": false,
      "inputs": [
        {
          "components": [
            {
              "internalType": "string",
              "name": "id",
              "type": "string"
            },
            {
              "internalType": "string",
              "name": "name",
              "type": "string"
            },
            {
              "internalType": "string",
              "name": "surname",
              "type": "string"
            },
            {
              "internalType": "string",
              "name": "email",
              "type": "string"
            },
            {
              "internalType": "string",
              "name": "padron",
              "type": "string"
            },
            {
              "internalType": "string[]",
              "name": "careers",
              "type": "string[]"
            },
            {
              "internalType": "bool",
              "name": "exists",
              "type": "bool"
            }
          ],
          "internalType": "struct Models.Contributor",
          "name": "_data",
          "type": "tuple"
        }
      ],
      "name": "createContributor",
      "outputs": [],
      "payable": false,
      "stateMutability": "nonpayable",
      "type": "function"
    },
    {
      "constant": true,
      "inputs": [
        {
          "internalType": "string",
          "name": "_id",
          "type": "string"
        }
      ],
      "name": "getContributor",
      "outputs": [
        {
          "components": [
            {
              "internalType": "string",
              "name": "id",
              "type": "string"
            },
            {
              "internalType": "string",
              "name": "name",
              "type": "string"
            },
            {
              "internalType": "string",
              "name": "surname",
              "type": "string"
            },
            {
              "internalType": "string",
              "name": "email",
              "type": "string"
            },
            {
              "internalType": "string",
              "name": "padron",
              "type": "string"
            },
            {
              "internalType": "string[]",
              "name": "careers",
              "type": "string[]"
            },
            {
              "internalType": "bool",
              "name": "exists",
              "type": "bool"
            }
          ],
          "internalType": "struct Models.Contributor",
          "name": "contributor",
          "type": "tuple"
        }
      ],
      "payable": false,
      "stateMutability": "view",
      "type": "function"
    },
    {
      "constant": false,
      "inputs": [
        {
          "components": [
            {
              "internalType": "string",
              "name": "id",
              "type": "string"
            },
            {
              "internalType": "string",
              "name": "name",
              "type": "string"
            },
            {
              "internalType": "string",
              "name": "surname",
              "type": "string"
            },
            {
              "internalType": "string",
              "name": "email",
              "type": "string"
            },
            {
              "internalType": "bool",
              "name": "exists",
              "type": "bool"
            }
          ],
          "internalType": "struct Models.Tutor",
          "name": "_data",
          "type": "tuple"
        }
      ],
      "name": "createTutor",
      "outputs": [],
      "payable": false,
      "stateMutability": "nonpayable",
      "type": "function"
    },
    {
      "constant": true,
      "inputs": [
        {
          "internalType": "string",
          "name": "_id",
          "type": "string"
        }
      ],
      "name": "getTutor",
      "outputs": [
        {
          "components": [
            {
              "internalType": "string",
              "name": "id",
              "type": "string"
            },
            {
              "internalType": "string",
              "name": "name",
              "type": "string"
            },
            {
              "internalType": "string",
              "name": "surname",
              "type": "string"
            },
            {
              "internalType": "string",
              "name": "email",
              "type": "string"
            },
            {
              "internalType": "bool",
              "name": "exists",
              "type": "bool"
            }
          ],
          "internalType": "struct Models.Tutor",
          "name": "tutor",
          "type": "tuple"
        }
      ],
      "payable": false,
      "stateMutability": "view",
      "type": "function"
    },
    {
      "constant": false,
      "inputs": [
        {
          "components": [
            {
              "internalType": "string",
              "name": "id",
              "type": "string"
            },
            {
              "internalType": "string",
              "name": "typeId",
              "type": "string"
            },
            {
              "internalType": "string",
              "name": "name",
              "type": "string"
            },
            {
              "internalType": "string",
              "name": "proposal_url",
              "type": "string"
            },
            {
              "internalType": "string",
              "name": "proposal_drive_id",
              "type": "string"
            },
            {
              "internalType": "string",
              "name": "proposal_name",
              "type": "string"
            },
            {
              "internalType": "string",
              "name": "creatorId",
              "type": "string"
            },
            {
              "internalType": "string",
              "name": "tutorId",
              "type": "string"
            },
            {
              "internalType": "string[]",
              "name": "studentIds",
              "type": "string[]"
            },
            {
              "internalType": "string[]",
              "name": "cotutorIds",
              "type": "string[]"
            }
          ],
          "internalType": "struct Models.Properties",
          "name": "_properties",
          "type": "tuple"
        }
      ],
      "name": "createProject",
      "outputs": [],
      "payable": false,
      "stateMutability": "nonpayable",
      "type": "function"
    },
    {
      "constant": false,
      "inputs": [
        {
          "internalType": "string",
          "name": "_project_id",
          "type": "string"
        },
        {
          "internalType": "string",
          "name": "_contributor_id",
          "type": "string"
        }
      ],
      "name": "addProjectStudent",
      "outputs": [],
      "payable": false,
      "stateMutability": "nonpayable",
      "type": "function"
    },
    {
      "constant": false,
      "inputs": [
        {
          "internalType": "string",
          "name": "_project_id",
          "type": "string"
        },
        {
          "internalType": "string",
          "name": "_tutor_id",
          "type": "string"
        }
      ],
      "name": "addProjectTutor",
      "outputs": [],
      "payable": false,
      "stateMutability": "nonpayable",
      "type": "function"
    },
    {
      "constant": true,
      "inputs": [
        {
          "internalType": "string",
          "name": "_id",
          "type": "string"
        }
      ],
      "name": "getProject",
      "outputs": [
        {
          "components": [
            {
              "internalType": "string",
              "name": "id",
              "type": "string"
            },
            {
              "internalType": "string",
              "name": "typeId",
              "type": "string"
            },
            {
              "internalType": "string",
              "name": "name",
              "type": "string"
            },
            {
              "internalType": "string",
              "name": "proposal_url",
              "type": "string"
            },
            {
              "internalType": "string",
              "name": "proposal_drive_id",
              "type": "string"
            },
            {
              "internalType": "string",
              "name": "proposal_name",
              "type": "string"
            },
            {
              "internalType": "string",
              "name": "creatorId",
              "type": "string"
            },
            {
              "internalType": "string",
              "name": "tutorId",
              "type": "string"
            },
            {
              "internalType": "string[]",
              "name": "studentIds",
              "type": "string[]"
            },
            {
              "internalType": "string[]",
              "name": "cotutorIds",
              "type": "string[]"
            }
          ],
          "internalType": "struct Models.Properties",
          "name": "properties",
          "type": "tuple"
        },
        {
          "components": [
            {
              "internalType": "string",
              "name": "name",
              "type": "string"
            }
          ],
          "internalType": "struct Models.Type",
          "name": "oftype",
          "type": "tuple"
        },
        {
          "components": [
            {
              "internalType": "string",
              "name": "id",
              "type": "string"
            },
            {
              "internalType": "string",
              "name": "name",
              "type": "string"
            },
            {
              "internalType": "string",
              "name": "surname",
              "type": "string"
            },
            {
              "internalType": "string",
              "name": "email",
              "type": "string"
            },
            {
              "internalType": "string",
              "name": "padron",
              "type": "string"
            },
            {
              "internalType": "string[]",
              "name": "careers",
              "type": "string[]"
            },
            {
              "internalType": "bool",
              "name": "exists",
              "type": "bool"
            }
          ],
          "internalType": "struct Models.Contributor",
          "name": "creator",
          "type": "tuple"
        },
        {
          "components": [
            {
              "internalType": "string",
              "name": "id",
              "type": "string"
            },
            {
              "internalType": "string",
              "name": "name",
              "type": "string"
            },
            {
              "internalType": "string",
              "name": "surname",
              "type": "string"
            },
            {
              "internalType": "string",
              "name": "email",
              "type": "string"
            },
            {
              "internalType": "bool",
              "name": "exists",
              "type": "bool"
            }
          ],
          "internalType": "struct Models.Tutor",
          "name": "tutor",
          "type": "tuple"
        }
      ],
      "payable": false,
      "stateMutability": "view",
      "type": "function"
    }
  ],
  "bytecode": "0x6080604052600160005534801561001557600080fd5b5033600160006101000a81548173ffffffffffffffffffffffffffffffffffffffff021916908373ffffffffffffffffffffffffffffffffffffffff1602179055506143d9806100666000396000f3fe60806040523480156200001157600080fd5b5060043610620000ac5760003560e01c8063910931ba116200006f578063910931ba146200019a578063a3f5b39114620001ba578063ad516a9314620001da578063b5468e5714620001fa578063c817dda1146200021a57620000ac565b80633ec045a614620000b15780634067289d14620000d35780634fa691e2146200010957806354fd4d5014620001425780635bb5dc0d1462000164575b600080fd5b620000bb6200023a565b604051620000ca919062002c51565b60405180910390f35b620000f16004803603620000eb9190810190620025de565b62000260565b60405162000100919062002d43565b60405180910390f35b620001276004803603620001219190810190620025de565b6200055b565b60405162000139949392919062002cda565b60405180910390f35b6200014c62000e3e565b6040516200015b919062002d67565b60405180910390f35b6200018260048036036200017c9190810190620025de565b62000e44565b60405162000191919062002c92565b60405180910390f35b620001b86004803603620001b29190810190620026db565b620012d4565b005b620001d86004803603620001d2919081019062002623565b62001576565b005b620001f86004803603620001f2919081019062002765565b6200169c565b005b62000218600480360362000212919081019062002623565b620017f9565b005b62000238600480360362000232919081019062002696565b6200191f565b005b600160009054906101000a900473ffffffffffffffffffffffffffffffffffffffff1681565b6200026a62001aba565b6004826040516200027c919062002c38565b90815260200160405180910390206040518060a0016040529081600082018054600181600116156101000203166002900480601f016020809104026020016040519081016040528092919081815260200182805460018160011615610100020316600290048015620003325780601f10620003065761010080835404028352916020019162000332565b820191906000526020600020905b8154815290600101906020018083116200031457829003601f168201915b50505050508152602001600182018054600181600116156101000203166002900480601f016020809104026020016040519081016040528092919081815260200182805460018160011615610100020316600290048015620003d85780601f10620003ac57610100808354040283529160200191620003d8565b820191906000526020600020905b815481529060010190602001808311620003ba57829003601f168201915b50505050508152602001600282018054600181600116156101000203166002900480601f0160208091040260200160405190810160405280929190818152602001828054600181600116156101000203166002900480156200047e5780601f1062000452576101008083540402835291602001916200047e565b820191906000526020600020905b8154815290600101906020018083116200046057829003601f168201915b50505050508152602001600382018054600181600116156101000203166002900480601f016020809104026020016040519081016040528092919081815260200182805460018160011615610100020316600290048015620005245780601f10620004f85761010080835404028352916020019162000524565b820191906000526020600020905b8154815290600101906020018083116200050657829003601f168201915b505050505081526020016004820160009054906101000a900460ff161515151581525050905080608001516200055657fe5b919050565b6200056562001aeb565b6200056f62001b3e565b6200057962001b51565b6200058362001aba565b6200058d62001b90565b6002866040516200059f919062002c38565b90815260200160405180910390206040518060400160405290816000820160009054906101000a900473ffffffffffffffffffffffffffffffffffffffff1673ffffffffffffffffffffffffffffffffffffffff1673ffffffffffffffffffffffffffffffffffffffff1681526020016000820160149054906101000a900460ff161515151581525050905080602001516200063757fe5b806000015173ffffffffffffffffffffffffffffffffffffffff1663ec0cfd0b6040518163ffffffff1660e01b815260040160006040518083038186803b1580156200068257600080fd5b505afa15801562000697573d6000803e3d6000fd5b505050506040513d6000823e3d601f19601f82011682018060405250620006c2919081019062002720565b945060405180602001604052808660200151815250935060038560c00151604051620006ef919062002c1f565b90815260200160405180910390206040518060e0016040529081600082018054600181600116156101000203166002900480601f016020809104026020016040519081016040528092919081815260200182805460018160011615610100020316600290048015620007a55780601f106200077957610100808354040283529160200191620007a5565b820191906000526020600020905b8154815290600101906020018083116200078757829003601f168201915b50505050508152602001600182018054600181600116156101000203166002900480601f0160208091040260200160405190810160405280929190818152602001828054600181600116156101000203166002900480156200084b5780601f106200081f576101008083540402835291602001916200084b565b820191906000526020600020905b8154815290600101906020018083116200082d57829003601f168201915b50505050508152602001600282018054600181600116156101000203166002900480601f016020809104026020016040519081016040528092919081815260200182805460018160011615610100020316600290048015620008f15780601f10620008c557610100808354040283529160200191620008f1565b820191906000526020600020905b815481529060010190602001808311620008d357829003601f168201915b50505050508152602001600382018054600181600116156101000203166002900480601f016020809104026020016040519081016040528092919081815260200182805460018160011615610100020316600290048015620009975780601f106200096b5761010080835404028352916020019162000997565b820191906000526020600020905b8154815290600101906020018083116200097957829003601f168201915b50505050508152602001600482018054600181600116156101000203166002900480601f01602080910402602001604051908101604052809291908181526020018280546001816001161561010002031660029004801562000a3d5780601f1062000a115761010080835404028352916020019162000a3d565b820191906000526020600020905b81548152906001019060200180831162000a1f57829003601f168201915b5050505050815260200160058201805480602002602001604051908101604052809291908181526020016000905b8282101562000b2d578382906000526020600020018054600181600116156101000203166002900480601f01602080910402602001604051908101604052809291908181526020018280546001816001161561010002031660029004801562000b185780601f1062000aec5761010080835404028352916020019162000b18565b820191906000526020600020905b81548152906001019060200180831162000afa57829003601f168201915b50505050508152602001906001019062000a6b565b5050505081526020016006820160009054906101000a900460ff161515151581525050925060048560e0015160405162000b68919062002c1f565b90815260200160405180910390206040518060a0016040529081600082018054600181600116156101000203166002900480601f01602080910402602001604051908101604052809291908181526020018280546001816001161561010002031660029004801562000c1e5780601f1062000bf25761010080835404028352916020019162000c1e565b820191906000526020600020905b81548152906001019060200180831162000c0057829003601f168201915b50505050508152602001600182018054600181600116156101000203166002900480601f01602080910402602001604051908101604052809291908181526020018280546001816001161561010002031660029004801562000cc45780601f1062000c985761010080835404028352916020019162000cc4565b820191906000526020600020905b81548152906001019060200180831162000ca657829003601f168201915b50505050508152602001600282018054600181600116156101000203166002900480601f01602080910402602001604051908101604052809291908181526020018280546001816001161561010002031660029004801562000d6a5780601f1062000d3e5761010080835404028352916020019162000d6a565b820191906000526020600020905b81548152906001019060200180831162000d4c57829003601f168201915b50505050508152602001600382018054600181600116156101000203166002900480601f01602080910402602001604051908101604052809291908181526020018280546001816001161561010002031660029004801562000e105780601f1062000de45761010080835404028352916020019162000e10565b820191906000526020600020905b81548152906001019060200180831162000df257829003601f168201915b505050505081526020016004820160009054906101000a900460ff1615151515815250509150509193509193565b60005481565b62000e4e62001b51565b60038260405162000e60919062002c38565b90815260200160405180910390206040518060e0016040529081600082018054600181600116156101000203166002900480601f01602080910402602001604051908101604052809291908181526020018280546001816001161561010002031660029004801562000f165780601f1062000eea5761010080835404028352916020019162000f16565b820191906000526020600020905b81548152906001019060200180831162000ef857829003601f168201915b50505050508152602001600182018054600181600116156101000203166002900480601f01602080910402602001604051908101604052809291908181526020018280546001816001161561010002031660029004801562000fbc5780601f1062000f905761010080835404028352916020019162000fbc565b820191906000526020600020905b81548152906001019060200180831162000f9e57829003601f168201915b50505050508152602001600282018054600181600116156101000203166002900480601f016020809104026020016040519081016040528092919081815260200182805460018160011615610100020316600290048015620010625780601f10620010365761010080835404028352916020019162001062565b820191906000526020600020905b8154815290600101906020018083116200104457829003601f168201915b50505050508152602001600382018054600181600116156101000203166002900480601f016020809104026020016040519081016040528092919081815260200182805460018160011615610100020316600290048015620011085780601f10620010dc5761010080835404028352916020019162001108565b820191906000526020600020905b815481529060010190602001808311620010ea57829003601f168201915b50505050508152602001600482018054600181600116156101000203166002900480601f016020809104026020016040519081016040528092919081815260200182805460018160011615610100020316600290048015620011ae5780601f106200118257610100808354040283529160200191620011ae565b820191906000526020600020905b8154815290600101906020018083116200119057829003601f168201915b5050505050815260200160058201805480602002602001604051908101604052809291908181526020016000905b828210156200129e578382906000526020600020018054600181600116156101000203166002900480601f016020809104026020016040519081016040528092919081815260200182805460018160011615610100020316600290048015620012895780601f106200125d5761010080835404028352916020019162001289565b820191906000526020600020905b8154815290600101906020018083116200126b57829003601f168201915b505050505081526020019060010190620011dc565b5050505081526020016006820160009054906101000a900460ff16151515158152505090508060c00151620012cf57fe5b919050565b6000151560028260000151604051620012ee919062002c1f565b908152602001604051809103902060000160149054906101000a900460ff161515146200131757fe5b6001151560038260c0015160405162001331919062002c1f565b908152602001604051809103902060060160009054906101000a900460ff161515146200135a57fe5b6001151560048260e0015160405162001374919062002c1f565b908152602001604051809103902060040160009054906101000a900460ff161515146200139d57fe5b60008090505b8161010001515181101562001418576001151560038361010001518381518110620013ca57fe5b6020026020010151604051620013e1919062002c1f565b908152602001604051809103902060060160009054906101000a900460ff161515146200140a57fe5b8080600101915050620013a3565b5060008090505b81610120015151811015620014945760011515600483610120015183815181106200144657fe5b60200260200101516040516200145d919062002c1f565b908152602001604051809103902060040160009054906101000a900460ff161515146200148657fe5b80806001019150506200141f565b5080604051620014a49062001bc2565b620014b0919062002cb6565b604051809103906000f080158015620014cd573d6000803e3d6000fd5b5060028260000151604051620014e4919062002c1f565b908152602001604051809103902060000160006101000a81548173ffffffffffffffffffffffffffffffffffffffff021916908373ffffffffffffffffffffffffffffffffffffffff1602179055506001600282600001516040516200154b919062002c1f565b908152602001604051809103902060000160146101000a81548160ff02191690831515021790555050565b60028260405162001588919062002c38565b908152602001604051809103902060000160149054906101000a900460ff16620015ae57fe5b600381604051620015c0919062002c38565b908152602001604051809103902060060160009054906101000a900460ff16620015e657fe5b600282604051620015f8919062002c38565b908152602001604051809103902060000160009054906101000a900473ffffffffffffffffffffffffffffffffffffffff1673ffffffffffffffffffffffffffffffffffffffff1663453e056a826040518263ffffffff1660e01b815260040162001664919062002c6e565b600060405180830381600087803b1580156200167f57600080fd5b505af115801562001694573d6000803e3d6000fd5b505050505050565b600015158160800151151514620016af57fe5b6000151560048260000151604051620016c9919062002c1f565b908152602001604051809103902060040160009054906101000a900460ff16151514620016f257fe5b806004826000015160405162001709919062002c1f565b908152602001604051809103902060008201518160000190805190602001906200173592919062001bd0565b5060208201518160010190805190602001906200175492919062001bd0565b5060408201518160020190805190602001906200177392919062001bd0565b5060608201518160030190805190602001906200179292919062001bd0565b5060808201518160040160006101000a81548160ff021916908315150217905550905050600160048260000151604051620017ce919062002c1f565b908152602001604051809103902060040160006101000a81548160ff02191690831515021790555050565b6002826040516200180b919062002c38565b908152602001604051809103902060000160149054906101000a900460ff166200183157fe5b60048160405162001843919062002c38565b908152602001604051809103902060040160009054906101000a900460ff166200186957fe5b6002826040516200187b919062002c38565b908152602001604051809103902060000160009054906101000a900473ffffffffffffffffffffffffffffffffffffffff1673ffffffffffffffffffffffffffffffffffffffff1663f1d7f903826040518263ffffffff1660e01b8152600401620018e7919062002c6e565b600060405180830381600087803b1580156200190257600080fd5b505af115801562001917573d6000803e3d6000fd5b505050505050565b600015158160c001511515146200193257fe5b60001515600382600001516040516200194c919062002c1f565b908152602001604051809103902060060160009054906101000a900460ff161515146200197557fe5b80600382600001516040516200198c919062002c1f565b90815260200160405180910390206000820151816000019080519060200190620019b892919062001bd0565b506020820151816001019080519060200190620019d792919062001bd0565b506040820151816002019080519060200190620019f692919062001bd0565b50606082015181600301908051906020019062001a1592919062001bd0565b50608082015181600401908051906020019062001a3492919062001bd0565b5060a082015181600501908051906020019062001a5392919062001c57565b5060c08201518160060160006101000a81548160ff02191690831515021790555090505060016003826000015160405162001a8f919062002c1f565b908152602001604051809103902060060160006101000a81548160ff02191690831515021790555050565b6040518060a00160405280606081526020016060815260200160608152602001606081526020016000151581525090565b604051806101400160405280606081526020016060815260200160608152602001606081526020016060815260200160608152602001606081526020016060815260200160608152602001606081525090565b6040518060200160405280606081525090565b6040518060e001604052806060815260200160608152602001606081526020016060815260200160608152602001606081526020016000151581525090565b6040518060400160405280600073ffffffffffffffffffffffffffffffffffffffff1681526020016000151581525090565b61142b8062002f6c83390190565b828054600181600116156101000203166002900490600052602060002090601f016020900481019282601f1062001c1357805160ff191683800117855562001c44565b8280016001018555821562001c44579182015b8281111562001c4357825182559160200191906001019062001c26565b5b50905062001c53919062001cbe565b5090565b82805482825590600052602060002090810192821562001cab579160200282015b8281111562001caa57825182908051906020019062001c9992919062001bd0565b509160200191906001019062001c78565b5b50905062001cba919062001ce6565b5090565b62001ce391905b8082111562001cdf57600081600090555060010162001cc5565b5090565b90565b62001d1491905b8082111562001d10576000818162001d06919062001d17565b5060010162001ced565b5090565b90565b50805460018160011615610100020316600290046000825580601f1062001d3f575062001d60565b601f01602090049060005260206000209081019062001d5f919062001cbe565b5b50565b600082601f83011262001d7557600080fd5b813562001d8c62001d868262002db2565b62002d84565b9150818183526020840193506020810190508360005b8381101562001dd6578135860162001dbb888262001e74565b84526020840193506020830192505060018101905062001da2565b5050505092915050565b600082601f83011262001df257600080fd5b815162001e0962001e038262002db2565b62002d84565b9150818183526020840193506020810190508360005b8381101562001e53578151860162001e38888262001ed0565b84526020840193506020830192505060018101905062001e1f565b5050505092915050565b60008135905062001e6e8162002f51565b92915050565b600082601f83011262001e8657600080fd5b813562001e9d62001e978262002ddb565b62002d84565b9150808252602083016020830185838301111562001eba57600080fd5b62001ec783828462002efb565b50505092915050565b600082601f83011262001ee257600080fd5b815162001ef962001ef38262002ddb565b62002d84565b9150808252602083016020830185838301111562001f1657600080fd5b62001f2383828462002f0a565b50505092915050565b600082601f83011262001f3e57600080fd5b813562001f5562001f4f8262002e08565b62002d84565b9150808252602083016020830185838301111562001f7257600080fd5b62001f7f83828462002efb565b50505092915050565b600060e0828403121562001f9b57600080fd5b62001fa760e062002d84565b9050600082013567ffffffffffffffff81111562001fc457600080fd5b62001fd28482850162001e74565b600083015250602082013567ffffffffffffffff81111562001ff357600080fd5b620020018482850162001e74565b602083015250604082013567ffffffffffffffff8111156200202257600080fd5b620020308482850162001e74565b604083015250606082013567ffffffffffffffff8111156200205157600080fd5b6200205f8482850162001e74565b606083015250608082013567ffffffffffffffff8111156200208057600080fd5b6200208e8482850162001e74565b60808301525060a082013567ffffffffffffffff811115620020af57600080fd5b620020bd8482850162001d63565b60a08301525060c0620020d38482850162001e5d565b60c08301525092915050565b60006101408284031215620020f357600080fd5b6200210061014062002d84565b9050600082013567ffffffffffffffff8111156200211d57600080fd5b6200212b8482850162001e74565b600083015250602082013567ffffffffffffffff8111156200214c57600080fd5b6200215a8482850162001e74565b602083015250604082013567ffffffffffffffff8111156200217b57600080fd5b620021898482850162001e74565b604083015250606082013567ffffffffffffffff811115620021aa57600080fd5b620021b88482850162001e74565b606083015250608082013567ffffffffffffffff811115620021d957600080fd5b620021e78482850162001e74565b60808301525060a082013567ffffffffffffffff8111156200220857600080fd5b620022168482850162001e74565b60a08301525060c082013567ffffffffffffffff8111156200223757600080fd5b620022458482850162001e74565b60c08301525060e082013567ffffffffffffffff8111156200226657600080fd5b620022748482850162001e74565b60e08301525061010082013567ffffffffffffffff8111156200229657600080fd5b620022a48482850162001d63565b6101008301525061012082013567ffffffffffffffff811115620022c757600080fd5b620022d58482850162001d63565b6101208301525092915050565b60006101408284031215620022f657600080fd5b6200230361014062002d84565b9050600082015167ffffffffffffffff8111156200232057600080fd5b6200232e8482850162001ed0565b600083015250602082015167ffffffffffffffff8111156200234f57600080fd5b6200235d8482850162001ed0565b602083015250604082015167ffffffffffffffff8111156200237e57600080fd5b6200238c8482850162001ed0565b604083015250606082015167ffffffffffffffff811115620023ad57600080fd5b620023bb8482850162001ed0565b606083015250608082015167ffffffffffffffff811115620023dc57600080fd5b620023ea8482850162001ed0565b60808301525060a082015167ffffffffffffffff8111156200240b57600080fd5b620024198482850162001ed0565b60a08301525060c082015167ffffffffffffffff8111156200243a57600080fd5b620024488482850162001ed0565b60c08301525060e082015167ffffffffffffffff8111156200246957600080fd5b620024778482850162001ed0565b60e08301525061010082015167ffffffffffffffff8111156200249957600080fd5b620024a78482850162001de0565b6101008301525061012082015167ffffffffffffffff811115620024ca57600080fd5b620024d88482850162001de0565b6101208301525092915050565b600060a08284031215620024f857600080fd5b6200250460a062002d84565b9050600082013567ffffffffffffffff8111156200252157600080fd5b6200252f8482850162001e74565b600083015250602082013567ffffffffffffffff8111156200255057600080fd5b6200255e8482850162001e74565b602083015250604082013567ffffffffffffffff8111156200257f57600080fd5b6200258d8482850162001e74565b604083015250606082013567ffffffffffffffff811115620025ae57600080fd5b620025bc8482850162001e74565b6060830152506080620025d28482850162001e5d565b60808301525092915050565b600060208284031215620025f157600080fd5b600082013567ffffffffffffffff8111156200260c57600080fd5b6200261a8482850162001f2c565b91505092915050565b600080604083850312156200263757600080fd5b600083013567ffffffffffffffff8111156200265257600080fd5b620026608582860162001f2c565b925050602083013567ffffffffffffffff8111156200267e57600080fd5b6200268c8582860162001f2c565b9150509250929050565b600060208284031215620026a957600080fd5b600082013567ffffffffffffffff811115620026c457600080fd5b620026d28482850162001f88565b91505092915050565b600060208284031215620026ee57600080fd5b600082013567ffffffffffffffff8111156200270957600080fd5b6200271784828501620020df565b91505092915050565b6000602082840312156200273357600080fd5b600082015167ffffffffffffffff8111156200274e57600080fd5b6200275c84828501620022e2565b91505092915050565b6000602082840312156200277857600080fd5b600082013567ffffffffffffffff8111156200279357600080fd5b620027a184828501620024e5565b91505092915050565b6000620027b88383620028db565b905092915050565b620027cb8162002eb1565b82525050565b6000620027de8262002e45565b620027ea818562002e73565b935083602082028501620027fe8562002e35565b8060005b858110156200284057848403895281516200281e8582620027aa565b94506200282b8362002e66565b925060208a0199505060018101905062002802565b50829750879550505050505092915050565b6200285d8162002ec5565b82525050565b6000620028708262002e5b565b6200287c818562002e95565b93506200288e81856020860162002f0a565b620028998162002f40565b840191505092915050565b6000620028b18262002e5b565b620028bd818562002ea6565b9350620028cf81856020860162002f0a565b80840191505092915050565b6000620028e88262002e50565b620028f4818562002e84565b93506200290681856020860162002f0a565b620029118162002f40565b840191505092915050565b6000620029298262002e50565b62002935818562002ea6565b93506200294781856020860162002f0a565b80840191505092915050565b600060e0830160008301518482036000860152620029728282620028db565b915050602083015184820360208601526200298e8282620028db565b91505060408301518482036040860152620029aa8282620028db565b91505060608301518482036060860152620029c68282620028db565b91505060808301518482036080860152620029e28282620028db565b91505060a083015184820360a0860152620029fe8282620027d1565b91505060c083015162002a1560c086018262002852565b508091505092915050565b600061014083016000830151848203600086015262002a408282620028db565b9150506020830151848203602086015262002a5c8282620028db565b9150506040830151848203604086015262002a788282620028db565b9150506060830151848203606086015262002a948282620028db565b9150506080830151848203608086015262002ab08282620028db565b91505060a083015184820360a086015262002acc8282620028db565b91505060c083015184820360c086015262002ae88282620028db565b91505060e083015184820360e086015262002b048282620028db565b91505061010083015184820361010086015262002b228282620027d1565b91505061012083015184820361012086015262002b408282620027d1565b9150508091505092915050565b600060a083016000830151848203600086015262002b6c8282620028db565b9150506020830151848203602086015262002b888282620028db565b9150506040830151848203604086015262002ba48282620028db565b9150506060830151848203606086015262002bc08282620028db565b915050608083015162002bd7608086018262002852565b508091505092915050565b6000602083016000830151848203600086015262002c018282620028db565b9150508091505092915050565b62002c198162002ef1565b82525050565b600062002c2d82846200291c565b915081905092915050565b600062002c468284620028a4565b915081905092915050565b600060208201905062002c686000830184620027c0565b92915050565b6000602082019050818103600083015262002c8a818462002863565b905092915050565b6000602082019050818103600083015262002cae818462002953565b905092915050565b6000602082019050818103600083015262002cd2818462002a20565b905092915050565b6000608082019050818103600083015262002cf6818762002a20565b9050818103602083015262002d0c818662002be2565b9050818103604083015262002d22818562002953565b9050818103606083015262002d38818462002b4d565b905095945050505050565b6000602082019050818103600083015262002d5f818462002b4d565b905092915050565b600060208201905062002d7e600083018462002c0e565b92915050565b6000604051905081810181811067ffffffffffffffff8211171562002da857600080fd5b8060405250919050565b600067ffffffffffffffff82111562002dca57600080fd5b602082029050602081019050919050565b600067ffffffffffffffff82111562002df357600080fd5b601f19601f8301169050602081019050919050565b600067ffffffffffffffff82111562002e2057600080fd5b601f19601f8301169050602081019050919050565b6000819050602082019050919050565b600081519050919050565b600081519050919050565b600081519050919050565b6000602082019050919050565b600082825260208201905092915050565b600082825260208201905092915050565b600082825260208201905092915050565b600081905092915050565b600062002ebe8262002ed1565b9050919050565b60008115159050919050565b600073ffffffffffffffffffffffffffffffffffffffff82169050919050565b6000819050919050565b82818337600083830152505050565b60005b8381101562002f2a57808201518184015260208101905062002f0d565b8381111562002f3a576000848401525b50505050565b6000601f19601f8301169050919050565b62002f5c8162002ec5565b811462002f6857600080fd5b5056fe60806040523480156200001157600080fd5b506040516200142b3803806200142b83398181016040526200003791908101906200062b565b336000806101000a81548173ffffffffffffffffffffffffffffffffffffffff021916908373ffffffffffffffffffffffffffffffffffffffff160217905550806001600082015181600001908051906020019062000098929190620001bc565b506020820151816001019080519060200190620000b7929190620001bc565b506040820151816002019080519060200190620000d6929190620001bc565b506060820151816003019080519060200190620000f5929190620001bc565b50608082015181600401908051906020019062000114929190620001bc565b5060a082015181600501908051906020019062000133929190620001bc565b5060c082015181600601908051906020019062000152929190620001bc565b5060e082015181600701908051906020019062000171929190620001bc565b506101008201518160080190805190602001906200019192919062000243565b50610120820151816009019080519060200190620001b192919062000243565b50905050506200072a565b828054600181600116156101000203166002900490600052602060002090601f016020900481019282601f10620001ff57805160ff191683800117855562000230565b8280016001018555821562000230579182015b828111156200022f57825182559160200191906001019062000212565b5b5090506200023f9190620002aa565b5090565b82805482825590600052602060002090810192821562000297579160200282015b828111156200029657825182908051906020019062000285929190620001bc565b509160200191906001019062000264565b5b509050620002a69190620002d2565b5090565b620002cf91905b80821115620002cb576000816000905550600101620002b1565b5090565b90565b6200030091905b80821115620002fc5760008181620002f2919062000303565b50600101620002d9565b5090565b90565b50805460018160011615610100020316600290046000825580601f106200032b57506200034c565b601f0160209004906000526020600020908101906200034b9190620002aa565b5b50565b600082601f8301126200036157600080fd5b81516200037862000372826200069e565b62000670565b9150818183526020840193506020810190508360005b83811015620003c25781518601620003a78882620003cc565b8452602084019350602083019250506001810190506200038e565b5050505092915050565b600082601f830112620003de57600080fd5b8151620003f5620003ef82620006c7565b62000670565b915080825260208301602083018583830111156200041257600080fd5b6200041f838284620006f4565b50505092915050565b600061014082840312156200043c57600080fd5b6200044961014062000670565b9050600082015167ffffffffffffffff8111156200046657600080fd5b6200047484828501620003cc565b600083015250602082015167ffffffffffffffff8111156200049557600080fd5b620004a384828501620003cc565b602083015250604082015167ffffffffffffffff811115620004c457600080fd5b620004d284828501620003cc565b604083015250606082015167ffffffffffffffff811115620004f357600080fd5b6200050184828501620003cc565b606083015250608082015167ffffffffffffffff8111156200052257600080fd5b6200053084828501620003cc565b60808301525060a082015167ffffffffffffffff8111156200055157600080fd5b6200055f84828501620003cc565b60a08301525060c082015167ffffffffffffffff8111156200058057600080fd5b6200058e84828501620003cc565b60c08301525060e082015167ffffffffffffffff811115620005af57600080fd5b620005bd84828501620003cc565b60e08301525061010082015167ffffffffffffffff811115620005df57600080fd5b620005ed848285016200034f565b6101008301525061012082015167ffffffffffffffff8111156200061057600080fd5b6200061e848285016200034f565b6101208301525092915050565b6000602082840312156200063e57600080fd5b600082015167ffffffffffffffff8111156200065957600080fd5b620006678482850162000428565b91505092915050565b6000604051905081810181811067ffffffffffffffff821117156200069457600080fd5b8060405250919050565b600067ffffffffffffffff821115620006b657600080fd5b602082029050602081019050919050565b600067ffffffffffffffff821115620006df57600080fd5b601f19601f8301169050602081019050919050565b60005b8381101562000714578082015181840152602081019050620006f7565b8381111562000724576000848401525b50505050565b610cf1806200073a6000396000f3fe608060405234801561001057600080fd5b50600436106100415760003560e01c8063453e056a14610046578063ec0cfd0b14610062578063f1d7f90314610080575b600080fd5b610060600480360361005b919081019061096f565b61009c565b005b61006a6100e1565b6040516100779190610b8b565b60405180910390f35b61009a6004803603610095919081019061096f565b6107de565b005b60016008018190806001815401808255809150509060018203906000526020600020016000909192909190915090805190602001906100dc929190610823565b505050565b6100e96108a3565b600160405180610140016040529081600082018054600181600116156101000203166002900480601f0160208091040260200160405190810160405280929190818152602001828054600181600116156101000203166002900480156101905780601f1061016557610100808354040283529160200191610190565b820191906000526020600020905b81548152906001019060200180831161017357829003601f168201915b50505050508152602001600182018054600181600116156101000203166002900480601f0160208091040260200160405190810160405280929190818152602001828054600181600116156101000203166002900480156102325780601f1061020757610100808354040283529160200191610232565b820191906000526020600020905b81548152906001019060200180831161021557829003601f168201915b50505050508152602001600282018054600181600116156101000203166002900480601f0160208091040260200160405190810160405280929190818152602001828054600181600116156101000203166002900480156102d45780601f106102a9576101008083540402835291602001916102d4565b820191906000526020600020905b8154815290600101906020018083116102b757829003601f168201915b50505050508152602001600382018054600181600116156101000203166002900480601f0160208091040260200160405190810160405280929190818152602001828054600181600116156101000203166002900480156103765780601f1061034b57610100808354040283529160200191610376565b820191906000526020600020905b81548152906001019060200180831161035957829003601f168201915b50505050508152602001600482018054600181600116156101000203166002900480601f0160208091040260200160405190810160405280929190818152602001828054600181600116156101000203166002900480156104185780601f106103ed57610100808354040283529160200191610418565b820191906000526020600020905b8154815290600101906020018083116103fb57829003601f168201915b50505050508152602001600582018054600181600116156101000203166002900480601f0160208091040260200160405190810160405280929190818152602001828054600181600116156101000203166002900480156104ba5780601f1061048f576101008083540402835291602001916104ba565b820191906000526020600020905b81548152906001019060200180831161049d57829003601f168201915b50505050508152602001600682018054600181600116156101000203166002900480601f01602080910402602001604051908101604052809291908181526020018280546001816001161561010002031660029004801561055c5780601f106105315761010080835404028352916020019161055c565b820191906000526020600020905b81548152906001019060200180831161053f57829003601f168201915b50505050508152602001600782018054600181600116156101000203166002900480601f0160208091040260200160405190810160405280929190818152602001828054600181600116156101000203166002900480156105fe5780601f106105d3576101008083540402835291602001916105fe565b820191906000526020600020905b8154815290600101906020018083116105e157829003601f168201915b5050505050815260200160088201805480602002602001604051908101604052809291908181526020016000905b828210156106e8578382906000526020600020018054600181600116156101000203166002900480601f0160208091040260200160405190810160405280929190818152602001828054600181600116156101000203166002900480156106d45780601f106106a9576101008083540402835291602001916106d4565b820191906000526020600020905b8154815290600101906020018083116106b757829003601f168201915b50505050508152602001906001019061062c565b50505050815260200160098201805480602002602001604051908101604052809291908181526020016000905b828210156107d1578382906000526020600020018054600181600116156101000203166002900480601f0160208091040260200160405190810160405280929190818152602001828054600181600116156101000203166002900480156107bd5780601f10610792576101008083540402835291602001916107bd565b820191906000526020600020905b8154815290600101906020018083116107a057829003601f168201915b505050505081526020019060010190610715565b5050505081525050905090565b600160090181908060018154018082558091505090600182039060005260206000200160009091929091909150908051906020019061081e929190610823565b505050565b828054600181600116156101000203166002900490600052602060002090601f016020900481019282601f1061086457805160ff1916838001178555610892565b82800160010185558215610892579182015b82811115610891578251825591602001919060010190610876565b5b50905061089f91906108f6565b5090565b604051806101400160405280606081526020016060815260200160608152602001606081526020016060815260200160608152602001606081526020016060815260200160608152602001606081525090565b61091891905b808211156109145760008160009055506001016108fc565b5090565b90565b600082601f83011261092c57600080fd5b813561093f61093a82610bda565b610bad565b9150808252602083016020830185838301111561095b57600080fd5b610966838284610c5b565b50505092915050565b60006020828403121561098157600080fd5b600082013567ffffffffffffffff81111561099b57600080fd5b6109a78482850161091b565b91505092915050565b60006109bc8383610a39565b905092915050565b60006109cf82610c16565b6109d98185610c39565b9350836020820285016109eb85610c06565b8060005b85811015610a275784840389528151610a0885826109b0565b9450610a1383610c2c565b925060208a019950506001810190506109ef565b50829750879550505050505092915050565b6000610a4482610c21565b610a4e8185610c4a565b9350610a5e818560208601610c6a565b610a6781610c9d565b840191505092915050565b6000610140830160008301518482036000860152610a908282610a39565b91505060208301518482036020860152610aaa8282610a39565b91505060408301518482036040860152610ac48282610a39565b91505060608301518482036060860152610ade8282610a39565b91505060808301518482036080860152610af88282610a39565b91505060a083015184820360a0860152610b128282610a39565b91505060c083015184820360c0860152610b2c8282610a39565b91505060e083015184820360e0860152610b468282610a39565b915050610100830151848203610100860152610b6282826109c4565b915050610120830151848203610120860152610b7e82826109c4565b9150508091505092915050565b60006020820190508181036000830152610ba58184610a72565b905092915050565b6000604051905081810181811067ffffffffffffffff82111715610bd057600080fd5b8060405250919050565b600067ffffffffffffffff821115610bf157600080fd5b601f19601f8301169050602081019050919050565b6000819050602082019050919050565b600081519050919050565b600081519050919050565b6000602082019050919050565b600082825260208201905092915050565b600082825260208201905092915050565b82818337600083830152505050565b60005b83811015610c88578082015181840152602081019050610c6d565b83811115610c97576000848401525b50505050565b6000601f19601f830116905091905056fea365627a7a72315820892935e92e65677c64d46a2d24f6f2fd46bf3bab439a35b2ae33387248c56ae66c6578706572696d656e74616cf564736f6c63430005100040a365627a7a72315820393bcdebf4aa3592d774919c474bf6950b77bfc69b540ddbbfc3f62c8a18e5216c6578706572696d656e74616cf564736f6c63430005100040",
  "source": "pragma solidity >=0.4.25 <0.7.0;\npragma experimental ABIEncoderV2;\n\nlibrary Models{\n\n\tstruct Properties {\n\t\tstring id;\n\t\tstring typeId;\n\t\tstring name;\n\t\tstring proposal_url;\n\t\tstring proposal_drive_id;\n\t\tstring proposal_name;\n\t\tstring creatorId;\n\t\tstring tutorId;\n\t\tstring[] studentIds;\n\t\tstring[] cotutorIds;\n\t}\n\n\tstruct ProjectRef {\n\t\tProject project;\n\t\tbool exists;\n\t}\n\n\tstruct Type {\n\t\tstring name;\n\t}\n\n\tstruct Contributor {\n\t\tstring id;\n\t\tstring name;\n\t\tstring surname;\n\t\tstring email;\n\t\tstring padron;\n\t\tstring[] careers;\n\t\tbool exists;\n\t}\n\n\tstruct Tutor {\n\t\tstring id;\n\t\tstring name;\n\t\tstring surname;\n\t\tstring email;\n\t\tbool exists;\n\t}\n}\n\ncontract Certificate {\n\n\tuint256 public version = 1;\n\n\taddress public auditor;\n\n\tmapping(string => Models.ProjectRef) projects_set;\n\tmapping(string => Models.Contributor) contributors_set;\n\tmapping(string => Models.Tutor) tutors_set;\n\n\tconstructor() public {\n\t\tauditor = msg.sender;\n\t}\n\n\tfunction createContributor(Models.Contributor memory _data) public {\n\t\t//check that doesn't exists\n\t\tassert(_data.exists == false);\n\t\tassert(contributors_set[_data.id].exists == false);\n\t\tcontributors_set[_data.id] = _data;\n\t\tcontributors_set[_data.id].exists = true;\n\t}\n\n\tfunction getContributor(string memory _id) public view returns(Models.Contributor memory contributor){\n\t\t//check that contributor exists\n\t\tcontributor = contributors_set[_id];\n\t\tassert(contributor.exists);\n\t}\n\n\tfunction createTutor(Models.Tutor memory _data) public {\n\t\t//check that doesn't exists\n\t\tassert(_data.exists == false);\n\t\tassert(tutors_set[_data.id].exists == false);\n\t\ttutors_set[_data.id] = _data;\n\t\ttutors_set[_data.id].exists = true;\n\t}\n\n\tfunction getTutor(string memory _id) public view returns(Models.Tutor memory tutor){\n\t\t//check that tutor exists\n\t\ttutor = tutors_set[_id];\n\t\tassert(tutor.exists);\n\t}\n\n\tfunction createProject(Models.Properties memory _properties) public {\n\t\t//check that doesn't exists\n\t\tassert(projects_set[_properties.id].exists == false);\n\t\t//check that owner exists\n\t\tassert(contributors_set[_properties.creatorId].exists == true);\n\t\t//check that tutor exists\n\t\tassert(tutors_set[_properties.tutorId].exists == true);\n\n\t\tfor (uint i = 0 ; i < _properties.studentIds.length; i++) {\n\t\t\tassert(contributors_set[_properties.studentIds[i]].exists == true);\n\t\t}\n\n\t\tfor (uint i = 0 ; i < _properties.cotutorIds.length; i++) {\n\t\t\tassert(tutors_set[_properties.cotutorIds[i]].exists == true);\n\t\t}\n\n\t\tprojects_set[_properties.id].project = new Project(_properties);\n\t\tprojects_set[_properties.id].exists = true;\n\t}\n\n\tfunction addProjectStudent(string memory _project_id, string memory _contributor_id) public {\n\t\t//check that project exists\n\t\tassert(projects_set[_project_id].exists);\n\t\t//check that contributor exists\n\t\tassert(contributors_set[_contributor_id].exists);\n\n\t\tprojects_set[_project_id].project.addStudent(_contributor_id);\n\t}\n\n\tfunction addProjectTutor(string memory _project_id, string memory _tutor_id) public {\n\t\t//check that project exists\n\t\tassert(projects_set[_project_id].exists);\n\t\t//check that contributor exists\n\t\tassert(tutors_set[_tutor_id].exists);\n\n\t\tprojects_set[_project_id].project.addCoTutor(_tutor_id);\n\t}\n\n\tfunction getProject(string memory _id) public view returns(Models.Properties memory properties,\n\t\t\t\t\t\t\t\t\t\t\t\t\t\t\t   Models.Type memory oftype,\n\t\t\t\t\t\t\t\t\t\t\t\t\t\t       Models.Contributor memory creator,\n\t\t\t\t\t\t\t\t\t\t\t\t\t\t\t   Models.Tutor memory tutor){\n\t\t//check that project exists\n\t\tModels.ProjectRef memory ref = projects_set[_id];\n\t\tassert(ref.exists);\n\t\tproperties = ref.project.getProperties();\n\t\toftype = Models.Type(properties.typeId);\n\t\tcreator = contributors_set[properties.creatorId];\n\t\ttutor = tutors_set[properties.tutorId];\n\t}\n}\n\ncontract Project {\n\taddress rootCertificate;\n\tModels.Properties properties;\n\n\tconstructor(Models.Properties memory _properties) public {\n\t\trootCertificate = msg.sender;\n\t\tproperties = _properties;\n\t}\n\n\tfunction addStudent(string memory _id) public {\n\t\tproperties.studentIds.push(_id);\n\t}\n\n\tfunction addCoTutor(string memory _id) public {\n\t\tproperties.cotutorIds.push(_id);\n\t}\n\n\tfunction getProperties() public view returns(Models.Properties memory){\n\t\treturn properties;\n\t}\n}",
  "sourcePath": "/Users/marcelo/programming/node-certificate/ledger/contracts/Certificate.sol",
  "compiler": {
    "name": "solc",
    "version": "0.5.16+commit.9c3226ce.Emscripten.clang"
  },
  "schemaVersion": "3.3.1",
  "updatedAt": "2020-10-30T01:54:23.839Z",
  "networkType": "ethereum",
  "devdoc": {
    "methods": {}
  },
  "userdoc": {
    "methods": {}
  }
}