{
  "contractName": "Project",
  "abi": [
    {
      "inputs": [
        {
          "components": [
            {
              "internalType": "string",
              "name": "id",
              "type": "string"
            },
            {
              "internalType": "string",
              "name": "typeId",
              "type": "string"
            },
            {
              "internalType": "string",
              "name": "name",
              "type": "string"
            },
            {
              "internalType": "string",
              "name": "proposal_url",
              "type": "string"
            },
            {
              "internalType": "string",
              "name": "proposal_drive_id",
              "type": "string"
            },
            {
              "internalType": "string",
              "name": "proposal_name",
              "type": "string"
            },
            {
              "internalType": "string",
              "name": "creatorId",
              "type": "string"
            },
            {
              "internalType": "string",
              "name": "tutorId",
              "type": "string"
            },
            {
              "internalType": "string[]",
              "name": "studentIds",
              "type": "string[]"
            },
            {
              "internalType": "string[]",
              "name": "cotutorIds",
              "type": "string[]"
            }
          ],
          "internalType": "struct Models.Properties",
          "name": "_properties",
          "type": "tuple"
        }
      ],
      "payable": false,
      "stateMutability": "nonpayable",
      "type": "constructor"
    },
    {
      "constant": false,
      "inputs": [
        {
          "internalType": "string",
          "name": "_id",
          "type": "string"
        }
      ],
      "name": "addStudent",
      "outputs": [],
      "payable": false,
      "stateMutability": "nonpayable",
      "type": "function"
    },
    {
      "constant": false,
      "inputs": [
        {
          "internalType": "string",
          "name": "_id",
          "type": "string"
        }
      ],
      "name": "addCoTutor",
      "outputs": [],
      "payable": false,
      "stateMutability": "nonpayable",
      "type": "function"
    },
    {
      "constant": true,
      "inputs": [],
      "name": "getProperties",
      "outputs": [
        {
          "components": [
            {
              "internalType": "string",
              "name": "id",
              "type": "string"
            },
            {
              "internalType": "string",
              "name": "typeId",
              "type": "string"
            },
            {
              "internalType": "string",
              "name": "name",
              "type": "string"
            },
            {
              "internalType": "string",
              "name": "proposal_url",
              "type": "string"
            },
            {
              "internalType": "string",
              "name": "proposal_drive_id",
              "type": "string"
            },
            {
              "internalType": "string",
              "name": "proposal_name",
              "type": "string"
            },
            {
              "internalType": "string",
              "name": "creatorId",
              "type": "string"
            },
            {
              "internalType": "string",
              "name": "tutorId",
              "type": "string"
            },
            {
              "internalType": "string[]",
              "name": "studentIds",
              "type": "string[]"
            },
            {
              "internalType": "string[]",
              "name": "cotutorIds",
              "type": "string[]"
            }
          ],
          "internalType": "struct Models.Properties",
          "name": "",
          "type": "tuple"
        }
      ],
      "payable": false,
      "stateMutability": "view",
      "type": "function"
    }
  ],
  "bytecode": "0x60806040523480156200001157600080fd5b506040516200142b3803806200142b83398181016040526200003791908101906200062b565b336000806101000a81548173ffffffffffffffffffffffffffffffffffffffff021916908373ffffffffffffffffffffffffffffffffffffffff160217905550806001600082015181600001908051906020019062000098929190620001bc565b506020820151816001019080519060200190620000b7929190620001bc565b506040820151816002019080519060200190620000d6929190620001bc565b506060820151816003019080519060200190620000f5929190620001bc565b50608082015181600401908051906020019062000114929190620001bc565b5060a082015181600501908051906020019062000133929190620001bc565b5060c082015181600601908051906020019062000152929190620001bc565b5060e082015181600701908051906020019062000171929190620001bc565b506101008201518160080190805190602001906200019192919062000243565b50610120820151816009019080519060200190620001b192919062000243565b50905050506200072a565b828054600181600116156101000203166002900490600052602060002090601f016020900481019282601f10620001ff57805160ff191683800117855562000230565b8280016001018555821562000230579182015b828111156200022f57825182559160200191906001019062000212565b5b5090506200023f9190620002aa565b5090565b82805482825590600052602060002090810192821562000297579160200282015b828111156200029657825182908051906020019062000285929190620001bc565b509160200191906001019062000264565b5b509050620002a69190620002d2565b5090565b620002cf91905b80821115620002cb576000816000905550600101620002b1565b5090565b90565b6200030091905b80821115620002fc5760008181620002f2919062000303565b50600101620002d9565b5090565b90565b50805460018160011615610100020316600290046000825580601f106200032b57506200034c565b601f0160209004906000526020600020908101906200034b9190620002aa565b5b50565b600082601f8301126200036157600080fd5b81516200037862000372826200069e565b62000670565b9150818183526020840193506020810190508360005b83811015620003c25781518601620003a78882620003cc565b8452602084019350602083019250506001810190506200038e565b5050505092915050565b600082601f830112620003de57600080fd5b8151620003f5620003ef82620006c7565b62000670565b915080825260208301602083018583830111156200041257600080fd5b6200041f838284620006f4565b50505092915050565b600061014082840312156200043c57600080fd5b6200044961014062000670565b9050600082015167ffffffffffffffff8111156200046657600080fd5b6200047484828501620003cc565b600083015250602082015167ffffffffffffffff8111156200049557600080fd5b620004a384828501620003cc565b602083015250604082015167ffffffffffffffff811115620004c457600080fd5b620004d284828501620003cc565b604083015250606082015167ffffffffffffffff811115620004f357600080fd5b6200050184828501620003cc565b606083015250608082015167ffffffffffffffff8111156200052257600080fd5b6200053084828501620003cc565b60808301525060a082015167ffffffffffffffff8111156200055157600080fd5b6200055f84828501620003cc565b60a08301525060c082015167ffffffffffffffff8111156200058057600080fd5b6200058e84828501620003cc565b60c08301525060e082015167ffffffffffffffff811115620005af57600080fd5b620005bd84828501620003cc565b60e08301525061010082015167ffffffffffffffff811115620005df57600080fd5b620005ed848285016200034f565b6101008301525061012082015167ffffffffffffffff8111156200061057600080fd5b6200061e848285016200034f565b6101208301525092915050565b6000602082840312156200063e57600080fd5b600082015167ffffffffffffffff8111156200065957600080fd5b620006678482850162000428565b91505092915050565b6000604051905081810181811067ffffffffffffffff821117156200069457600080fd5b8060405250919050565b600067ffffffffffffffff821115620006b657600080fd5b602082029050602081019050919050565b600067ffffffffffffffff821115620006df57600080fd5b601f19601f8301169050602081019050919050565b60005b8381101562000714578082015181840152602081019050620006f7565b8381111562000724576000848401525b50505050565b610cf1806200073a6000396000f3fe608060405234801561001057600080fd5b50600436106100415760003560e01c8063453e056a14610046578063ec0cfd0b14610062578063f1d7f90314610080575b600080fd5b610060600480360361005b919081019061096f565b61009c565b005b61006a6100e1565b6040516100779190610b8b565b60405180910390f35b61009a6004803603610095919081019061096f565b6107de565b005b60016008018190806001815401808255809150509060018203906000526020600020016000909192909190915090805190602001906100dc929190610823565b505050565b6100e96108a3565b600160405180610140016040529081600082018054600181600116156101000203166002900480601f0160208091040260200160405190810160405280929190818152602001828054600181600116156101000203166002900480156101905780601f1061016557610100808354040283529160200191610190565b820191906000526020600020905b81548152906001019060200180831161017357829003601f168201915b50505050508152602001600182018054600181600116156101000203166002900480601f0160208091040260200160405190810160405280929190818152602001828054600181600116156101000203166002900480156102325780601f1061020757610100808354040283529160200191610232565b820191906000526020600020905b81548152906001019060200180831161021557829003601f168201915b50505050508152602001600282018054600181600116156101000203166002900480601f0160208091040260200160405190810160405280929190818152602001828054600181600116156101000203166002900480156102d45780601f106102a9576101008083540402835291602001916102d4565b820191906000526020600020905b8154815290600101906020018083116102b757829003601f168201915b50505050508152602001600382018054600181600116156101000203166002900480601f0160208091040260200160405190810160405280929190818152602001828054600181600116156101000203166002900480156103765780601f1061034b57610100808354040283529160200191610376565b820191906000526020600020905b81548152906001019060200180831161035957829003601f168201915b50505050508152602001600482018054600181600116156101000203166002900480601f0160208091040260200160405190810160405280929190818152602001828054600181600116156101000203166002900480156104185780601f106103ed57610100808354040283529160200191610418565b820191906000526020600020905b8154815290600101906020018083116103fb57829003601f168201915b50505050508152602001600582018054600181600116156101000203166002900480601f0160208091040260200160405190810160405280929190818152602001828054600181600116156101000203166002900480156104ba5780601f1061048f576101008083540402835291602001916104ba565b820191906000526020600020905b81548152906001019060200180831161049d57829003601f168201915b50505050508152602001600682018054600181600116156101000203166002900480601f01602080910402602001604051908101604052809291908181526020018280546001816001161561010002031660029004801561055c5780601f106105315761010080835404028352916020019161055c565b820191906000526020600020905b81548152906001019060200180831161053f57829003601f168201915b50505050508152602001600782018054600181600116156101000203166002900480601f0160208091040260200160405190810160405280929190818152602001828054600181600116156101000203166002900480156105fe5780601f106105d3576101008083540402835291602001916105fe565b820191906000526020600020905b8154815290600101906020018083116105e157829003601f168201915b5050505050815260200160088201805480602002602001604051908101604052809291908181526020016000905b828210156106e8578382906000526020600020018054600181600116156101000203166002900480601f0160208091040260200160405190810160405280929190818152602001828054600181600116156101000203166002900480156106d45780601f106106a9576101008083540402835291602001916106d4565b820191906000526020600020905b8154815290600101906020018083116106b757829003601f168201915b50505050508152602001906001019061062c565b50505050815260200160098201805480602002602001604051908101604052809291908181526020016000905b828210156107d1578382906000526020600020018054600181600116156101000203166002900480601f0160208091040260200160405190810160405280929190818152602001828054600181600116156101000203166002900480156107bd5780601f10610792576101008083540402835291602001916107bd565b820191906000526020600020905b8154815290600101906020018083116107a057829003601f168201915b505050505081526020019060010190610715565b5050505081525050905090565b600160090181908060018154018082558091505090600182039060005260206000200160009091929091909150908051906020019061081e929190610823565b505050565b828054600181600116156101000203166002900490600052602060002090601f016020900481019282601f1061086457805160ff1916838001178555610892565b82800160010185558215610892579182015b82811115610891578251825591602001919060010190610876565b5b50905061089f91906108f6565b5090565b604051806101400160405280606081526020016060815260200160608152602001606081526020016060815260200160608152602001606081526020016060815260200160608152602001606081525090565b61091891905b808211156109145760008160009055506001016108fc565b5090565b90565b600082601f83011261092c57600080fd5b813561093f61093a82610bda565b610bad565b9150808252602083016020830185838301111561095b57600080fd5b610966838284610c5b565b50505092915050565b60006020828403121561098157600080fd5b600082013567ffffffffffffffff81111561099b57600080fd5b6109a78482850161091b565b91505092915050565b60006109bc8383610a39565b905092915050565b60006109cf82610c16565b6109d98185610c39565b9350836020820285016109eb85610c06565b8060005b85811015610a275784840389528151610a0885826109b0565b9450610a1383610c2c565b925060208a019950506001810190506109ef565b50829750879550505050505092915050565b6000610a4482610c21565b610a4e8185610c4a565b9350610a5e818560208601610c6a565b610a6781610c9d565b840191505092915050565b6000610140830160008301518482036000860152610a908282610a39565b91505060208301518482036020860152610aaa8282610a39565b91505060408301518482036040860152610ac48282610a39565b91505060608301518482036060860152610ade8282610a39565b91505060808301518482036080860152610af88282610a39565b91505060a083015184820360a0860152610b128282610a39565b91505060c083015184820360c0860152610b2c8282610a39565b91505060e083015184820360e0860152610b468282610a39565b915050610100830151848203610100860152610b6282826109c4565b915050610120830151848203610120860152610b7e82826109c4565b9150508091505092915050565b60006020820190508181036000830152610ba58184610a72565b905092915050565b6000604051905081810181811067ffffffffffffffff82111715610bd057600080fd5b8060405250919050565b600067ffffffffffffffff821115610bf157600080fd5b601f19601f8301169050602081019050919050565b6000819050602082019050919050565b600081519050919050565b600081519050919050565b6000602082019050919050565b600082825260208201905092915050565b600082825260208201905092915050565b82818337600083830152505050565b60005b83811015610c88578082015181840152602081019050610c6d565b83811115610c97576000848401525b50505050565b6000601f19601f830116905091905056fea365627a7a72315820892935e92e65677c64d46a2d24f6f2fd46bf3bab439a35b2ae33387248c56ae66c6578706572696d656e74616cf564736f6c63430005100040",
  "source": "pragma solidity >=0.4.25 <0.7.0;\npragma experimental ABIEncoderV2;\n\nlibrary Models{\n\n\tstruct Properties {\n\t\tstring id;\n\t\tstring typeId;\n\t\tstring name;\n\t\tstring proposal_url;\n\t\tstring proposal_drive_id;\n\t\tstring proposal_name;\n\t\tstring creatorId;\n\t\tstring tutorId;\n\t\tstring[] studentIds;\n\t\tstring[] cotutorIds;\n\t}\n\n\tstruct ProjectRef {\n\t\tProject project;\n\t\tbool exists;\n\t}\n\n\tstruct Type {\n\t\tstring name;\n\t}\n\n\tstruct Contributor {\n\t\tstring id;\n\t\tstring name;\n\t\tstring surname;\n\t\tstring email;\n\t\tstring padron;\n\t\tstring[] careers;\n\t\tbool exists;\n\t}\n\n\tstruct Tutor {\n\t\tstring id;\n\t\tstring name;\n\t\tstring surname;\n\t\tstring email;\n\t\tbool exists;\n\t}\n}\n\ncontract Certificate {\n\n\tuint256 public version = 1;\n\n\taddress public auditor;\n\n\tmapping(string => Models.ProjectRef) projects_set;\n\tmapping(string => Models.Contributor) contributors_set;\n\tmapping(string => Models.Tutor) tutors_set;\n\n\tconstructor() public {\n\t\tauditor = msg.sender;\n\t}\n\n\tfunction createContributor(Models.Contributor memory _data) public {\n\t\t//check that doesn't exists\n\t\tassert(_data.exists == false);\n\t\tassert(contributors_set[_data.id].exists == false);\n\t\tcontributors_set[_data.id] = _data;\n\t\tcontributors_set[_data.id].exists = true;\n\t}\n\n\tfunction getContributor(string memory _id) public view returns(Models.Contributor memory contributor){\n\t\t//check that contributor exists\n\t\tcontributor = contributors_set[_id];\n\t\tassert(contributor.exists);\n\t}\n\n\tfunction createTutor(Models.Tutor memory _data) public {\n\t\t//check that doesn't exists\n\t\tassert(_data.exists == false);\n\t\tassert(tutors_set[_data.id].exists == false);\n\t\ttutors_set[_data.id] = _data;\n\t\ttutors_set[_data.id].exists = true;\n\t}\n\n\tfunction getTutor(string memory _id) public view returns(Models.Tutor memory tutor){\n\t\t//check that tutor exists\n\t\ttutor = tutors_set[_id];\n\t\tassert(tutor.exists);\n\t}\n\n\tfunction createProject(Models.Properties memory _properties) public {\n\t\t//check that doesn't exists\n\t\tassert(projects_set[_properties.id].exists == false);\n\t\t//check that owner exists\n\t\tassert(contributors_set[_properties.creatorId].exists == true);\n\t\t//check that tutor exists\n\t\tassert(tutors_set[_properties.tutorId].exists == true);\n\n\t\tfor (uint i = 0 ; i < _properties.studentIds.length; i++) {\n\t\t\tassert(contributors_set[_properties.studentIds[i]].exists == true);\n\t\t}\n\n\t\tfor (uint i = 0 ; i < _properties.cotutorIds.length; i++) {\n\t\t\tassert(tutors_set[_properties.cotutorIds[i]].exists == true);\n\t\t}\n\n\t\tprojects_set[_properties.id].project = new Project(_properties);\n\t\tprojects_set[_properties.id].exists = true;\n\t}\n\n\tfunction addProjectStudent(string memory _project_id, string memory _contributor_id) public {\n\t\t//check that project exists\n\t\tassert(projects_set[_project_id].exists);\n\t\t//check that contributor exists\n\t\tassert(contributors_set[_contributor_id].exists);\n\n\t\tprojects_set[_project_id].project.addStudent(_contributor_id);\n\t}\n\n\tfunction addProjectTutor(string memory _project_id, string memory _tutor_id) public {\n\t\t//check that project exists\n\t\tassert(projects_set[_project_id].exists);\n\t\t//check that contributor exists\n\t\tassert(tutors_set[_tutor_id].exists);\n\n\t\tprojects_set[_project_id].project.addCoTutor(_tutor_id);\n\t}\n\n\tfunction getProject(string memory _id) public view returns(Models.Properties memory properties,\n\t\t\t\t\t\t\t\t\t\t\t\t\t\t\t   Models.Type memory oftype,\n\t\t\t\t\t\t\t\t\t\t\t\t\t\t       Models.Contributor memory creator,\n\t\t\t\t\t\t\t\t\t\t\t\t\t\t\t   Models.Tutor memory tutor){\n\t\t//check that project exists\n\t\tModels.ProjectRef memory ref = projects_set[_id];\n\t\tassert(ref.exists);\n\t\tproperties = ref.project.getProperties();\n\t\toftype = Models.Type(properties.typeId);\n\t\tcreator = contributors_set[properties.creatorId];\n\t\ttutor = tutors_set[properties.tutorId];\n\t}\n}\n\ncontract Project {\n\taddress rootCertificate;\n\tModels.Properties properties;\n\n\tconstructor(Models.Properties memory _properties) public {\n\t\trootCertificate = msg.sender;\n\t\tproperties = _properties;\n\t}\n\n\tfunction addStudent(string memory _id) public {\n\t\tproperties.studentIds.push(_id);\n\t}\n\n\tfunction addCoTutor(string memory _id) public {\n\t\tproperties.cotutorIds.push(_id);\n\t}\n\n\tfunction getProperties() public view returns(Models.Properties memory){\n\t\treturn properties;\n\t}\n}",
  "sourcePath": "/Users/marcelo/programming/node-certificate/ledger/contracts/Certificate.sol",
  "compiler": {
    "name": "solc",
    "version": "0.5.16+commit.9c3226ce.Emscripten.clang"
  },
  "schemaVersion": "3.3.1",
  "updatedAt": "2020-10-30T01:05:19.739Z",
  "devdoc": {
    "methods": {}
  },
  "userdoc": {
    "methods": {}
  }
}