{
  "contractName": "Certificate",
  "abi": [
    {
      "inputs": [],
      "payable": false,
      "stateMutability": "nonpayable",
      "type": "constructor"
    },
    {
      "constant": true,
      "inputs": [],
      "name": "auditor",
      "outputs": [
        {
          "internalType": "address",
          "name": "",
          "type": "address"
        }
      ],
      "payable": false,
      "stateMutability": "view",
      "type": "function"
    },
    {
      "constant": false,
      "inputs": [
        {
          "internalType": "string",
          "name": "_id",
          "type": "string"
        },
        {
          "components": [
            {
              "internalType": "string",
              "name": "name",
              "type": "string"
            },
            {
              "internalType": "string",
              "name": "surname",
              "type": "string"
            },
            {
              "internalType": "string",
              "name": "email",
              "type": "string"
            },
            {
              "internalType": "string",
              "name": "padron",
              "type": "string"
            },
            {
              "internalType": "string[]",
              "name": "careers",
              "type": "string[]"
            },
            {
              "internalType": "bool",
              "name": "exists",
              "type": "bool"
            }
          ],
          "internalType": "struct Certificate.Contributor",
          "name": "_data",
          "type": "tuple"
        }
      ],
      "name": "createContributor",
      "outputs": [],
      "payable": false,
      "stateMutability": "nonpayable",
      "type": "function"
    },
    {
      "constant": true,
      "inputs": [
        {
          "internalType": "string",
          "name": "_id",
          "type": "string"
        }
      ],
      "name": "getContributor",
      "outputs": [
        {
          "components": [
            {
              "internalType": "string",
              "name": "name",
              "type": "string"
            },
            {
              "internalType": "string",
              "name": "surname",
              "type": "string"
            },
            {
              "internalType": "string",
              "name": "email",
              "type": "string"
            },
            {
              "internalType": "string",
              "name": "padron",
              "type": "string"
            },
            {
              "internalType": "string[]",
              "name": "careers",
              "type": "string[]"
            },
            {
              "internalType": "bool",
              "name": "exists",
              "type": "bool"
            }
          ],
          "internalType": "struct Certificate.Contributor",
          "name": "contributor",
          "type": "tuple"
        }
      ],
      "payable": false,
      "stateMutability": "view",
      "type": "function"
    },
    {
      "constant": false,
      "inputs": [
        {
          "internalType": "string",
          "name": "_id",
          "type": "string"
        },
        {
          "components": [
            {
              "internalType": "string",
              "name": "name",
              "type": "string"
            },
            {
              "internalType": "string",
              "name": "surname",
              "type": "string"
            },
            {
              "internalType": "string",
              "name": "email",
              "type": "string"
            },
            {
              "internalType": "bool",
              "name": "exists",
              "type": "bool"
            }
          ],
          "internalType": "struct Certificate.Tutor",
          "name": "_data",
          "type": "tuple"
        }
      ],
      "name": "createTutor",
      "outputs": [],
      "payable": false,
      "stateMutability": "nonpayable",
      "type": "function"
    },
    {
      "constant": true,
      "inputs": [
        {
          "internalType": "string",
          "name": "_id",
          "type": "string"
        }
      ],
      "name": "getTutor",
      "outputs": [
        {
          "components": [
            {
              "internalType": "string",
              "name": "name",
              "type": "string"
            },
            {
              "internalType": "string",
              "name": "surname",
              "type": "string"
            },
            {
              "internalType": "string",
              "name": "email",
              "type": "string"
            },
            {
              "internalType": "bool",
              "name": "exists",
              "type": "bool"
            }
          ],
          "internalType": "struct Certificate.Tutor",
          "name": "tutor",
          "type": "tuple"
        }
      ],
      "payable": false,
      "stateMutability": "view",
      "type": "function"
    },
    {
      "constant": false,
      "inputs": [
        {
          "internalType": "string",
          "name": "_id",
          "type": "string"
        },
        {
          "internalType": "string",
          "name": "_type_name",
          "type": "string"
        },
        {
          "components": [
            {
              "internalType": "string",
              "name": "name",
              "type": "string"
            },
            {
              "internalType": "string",
              "name": "proposal_url",
              "type": "string"
            },
            {
              "internalType": "string",
              "name": "proposal_drive_id",
              "type": "string"
            },
            {
              "internalType": "string",
              "name": "proposal_name",
              "type": "string"
            },
            {
              "internalType": "string",
              "name": "ownerId",
              "type": "string"
            },
            {
              "internalType": "string",
              "name": "tutorId",
              "type": "string"
            },
            {
              "internalType": "bool",
              "name": "exists",
              "type": "bool"
            },
            {
              "internalType": "bool",
              "name": "locked",
              "type": "bool"
            }
          ],
          "internalType": "struct Certificate.Project",
          "name": "_data",
          "type": "tuple"
        }
      ],
      "name": "createProject",
      "outputs": [],
      "payable": false,
      "stateMutability": "nonpayable",
      "type": "function"
    },
    {
      "constant": false,
      "inputs": [
        {
          "internalType": "string",
          "name": "_project_id",
          "type": "string"
        },
        {
          "internalType": "string",
          "name": "_contributor_id",
          "type": "string"
        }
      ],
      "name": "addProjectContributor",
      "outputs": [],
      "payable": false,
      "stateMutability": "nonpayable",
      "type": "function"
    },
    {
      "constant": false,
      "inputs": [
        {
          "internalType": "string",
          "name": "_project_id",
          "type": "string"
        },
        {
          "internalType": "string",
          "name": "_tutor_id",
          "type": "string"
        }
      ],
      "name": "addProjectTutor",
      "outputs": [],
      "payable": false,
      "stateMutability": "nonpayable",
      "type": "function"
    },
    {
      "constant": true,
      "inputs": [
        {
          "internalType": "string",
          "name": "_id",
          "type": "string"
        }
      ],
      "name": "getProject",
      "outputs": [
        {
          "components": [
            {
              "internalType": "string",
              "name": "name",
              "type": "string"
            },
            {
              "internalType": "string",
              "name": "proposal_url",
              "type": "string"
            },
            {
              "internalType": "string",
              "name": "proposal_drive_id",
              "type": "string"
            },
            {
              "internalType": "string",
              "name": "proposal_name",
              "type": "string"
            },
            {
              "internalType": "string",
              "name": "ownerId",
              "type": "string"
            },
            {
              "internalType": "string",
              "name": "tutorId",
              "type": "string"
            },
            {
              "internalType": "bool",
              "name": "exists",
              "type": "bool"
            },
            {
              "internalType": "bool",
              "name": "locked",
              "type": "bool"
            }
          ],
          "internalType": "struct Certificate.Project",
          "name": "project",
          "type": "tuple"
        },
        {
          "components": [
            {
              "internalType": "string",
              "name": "name",
              "type": "string"
            }
          ],
          "internalType": "struct Certificate.Type",
          "name": "oftype",
          "type": "tuple"
        },
        {
          "components": [
            {
              "internalType": "string",
              "name": "name",
              "type": "string"
            },
            {
              "internalType": "string",
              "name": "surname",
              "type": "string"
            },
            {
              "internalType": "string",
              "name": "email",
              "type": "string"
            },
            {
              "internalType": "string",
              "name": "padron",
              "type": "string"
            },
            {
              "internalType": "string[]",
              "name": "careers",
              "type": "string[]"
            },
            {
              "internalType": "bool",
              "name": "exists",
              "type": "bool"
            }
          ],
          "internalType": "struct Certificate.Contributor",
          "name": "owner",
          "type": "tuple"
        },
        {
          "components": [
            {
              "internalType": "string",
              "name": "name",
              "type": "string"
            },
            {
              "internalType": "string",
              "name": "surname",
              "type": "string"
            },
            {
              "internalType": "string",
              "name": "email",
              "type": "string"
            },
            {
              "internalType": "bool",
              "name": "exists",
              "type": "bool"
            }
          ],
          "internalType": "struct Certificate.Tutor",
          "name": "tutor",
          "type": "tuple"
        },
        {
          "internalType": "string[]",
          "name": "contributors",
          "type": "string[]"
        },
        {
          "internalType": "string[]",
          "name": "cotutors",
          "type": "string[]"
        }
      ],
      "payable": false,
      "stateMutability": "view",
      "type": "function"
    }
  ],
  "bytecode": "0x608060405234801561001057600080fd5b50336000806101000a81548173ffffffffffffffffffffffffffffffffffffffff021916908373ffffffffffffffffffffffffffffffffffffffff160217905550612be1806100606000396000f3fe608060405234801561001057600080fd5b50600436106100935760003560e01c80634fa691e2116100665780634fa691e21461011e5780635bb5dc0d146101535780639f29e832146101835780639f85165f1461019f578063b5468e57146101bb57610093565b80630b35ff93146100985780633ec045a6146100b45780634067289d146100d25780634e23a92014610102575b600080fd5b6100b260048036036100ad91908101906123eb565b6101d7565b005b6100bc610336565b6040516100c991906128bb565b60405180910390f35b6100ec60048036036100e791908101906122a7565b61035b565b6040516100f99190612983565b60405180910390f35b61011c600480360361011791908101906122e8565b61059f565b005b610138600480360361013391908101906122a7565b610668565b60405161014a969594939291906128f8565b60405180910390f35b61016d600480360361016891908101906122a7565b611385565b60405161017a91906128d6565b60405180910390f35b61019d60048036036101989190810190612354565b611754565b005b6101b960048036036101b49190810190612457565b6119ab565b005b6101d560048036036101d091908101906122e8565b611ad0565b005b600015158160a001511515146101e957fe5b600015156002836040516101fd91906128a4565b908152602001604051809103902060050160009054906101000a900460ff1615151461022557fe5b8060028360405161023691906128a4565b90815260200160405180910390206000820151816000019080519060200190610260929190611b99565b50602082015181600101908051906020019061027d929190611b99565b50604082015181600201908051906020019061029a929190611b99565b5060608201518160030190805190602001906102b7929190611b99565b5060808201518160040190805190602001906102d4929190611c19565b5060a08201518160050160006101000a81548160ff021916908315150217905550905050600160028360405161030a91906128a4565b908152602001604051809103902060050160006101000a81548160ff0219169083151502179055505050565b6000809054906101000a900473ffffffffffffffffffffffffffffffffffffffff1681565b610363611c79565b60038260405161037391906128a4565b9081526020016040518091039020604051806080016040529081600082018054600181600116156101000203166002900480601f0160208091040260200160405190810160405280929190818152602001828054600181600116156101000203166002900480156104255780601f106103fa57610100808354040283529160200191610425565b820191906000526020600020905b81548152906001019060200180831161040857829003601f168201915b50505050508152602001600182018054600181600116156101000203166002900480601f0160208091040260200160405190810160405280929190818152602001828054600181600116156101000203166002900480156104c75780601f1061049c576101008083540402835291602001916104c7565b820191906000526020600020905b8154815290600101906020018083116104aa57829003601f168201915b50505050508152602001600282018054600181600116156101000203166002900480601f0160208091040260200160405190810160405280929190818152602001828054600181600116156101000203166002900480156105695780601f1061053e57610100808354040283529160200191610569565b820191906000526020600020905b81548152906001019060200180831161054c57829003601f168201915b505050505081526020016003820160009054906101000a900460ff1615151515815250509050806060015161059a57fe5b919050565b6001826040516105af91906128a4565b908152602001604051809103902060060160009054906101000a900460ff166105d457fe5b6002816040516105e491906128a4565b908152602001604051809103902060050160009054906101000a900460ff1661060957fe5b60078260405161061991906128a4565b9081526020016040518091039020819080600181540180825580915050906001820390600052602060002001600090919290919091509080519060200190610662929190611ca3565b50505050565b610670611d23565b610678611d6c565b610680611d7f565b610688611c79565b60608060018760405161069b91906128a4565b908152602001604051809103902060405180610100016040529081600082018054600181600116156101000203166002900480601f01602080910402602001604051908101604052809291908181526020018280546001816001161561010002031660029004801561074e5780601f106107235761010080835404028352916020019161074e565b820191906000526020600020905b81548152906001019060200180831161073157829003601f168201915b50505050508152602001600182018054600181600116156101000203166002900480601f0160208091040260200160405190810160405280929190818152602001828054600181600116156101000203166002900480156107f05780601f106107c5576101008083540402835291602001916107f0565b820191906000526020600020905b8154815290600101906020018083116107d357829003601f168201915b50505050508152602001600282018054600181600116156101000203166002900480601f0160208091040260200160405190810160405280929190818152602001828054600181600116156101000203166002900480156108925780601f1061086757610100808354040283529160200191610892565b820191906000526020600020905b81548152906001019060200180831161087557829003601f168201915b50505050508152602001600382018054600181600116156101000203166002900480601f0160208091040260200160405190810160405280929190818152602001828054600181600116156101000203166002900480156109345780601f1061090957610100808354040283529160200191610934565b820191906000526020600020905b81548152906001019060200180831161091757829003601f168201915b50505050508152602001600482018054600181600116156101000203166002900480601f0160208091040260200160405190810160405280929190818152602001828054600181600116156101000203166002900480156109d65780601f106109ab576101008083540402835291602001916109d6565b820191906000526020600020905b8154815290600101906020018083116109b957829003601f168201915b50505050508152602001600582018054600181600116156101000203166002900480601f016020809104026020016040519081016040528092919081815260200182805460018160011615610100020316600290048015610a785780601f10610a4d57610100808354040283529160200191610a78565b820191906000526020600020905b815481529060010190602001808311610a5b57829003601f168201915b505050505081526020016006820160009054906101000a900460ff161515151581526020016006820160019054906101000a900460ff16151515158152505095508560c00151610ac457fe5b600487604051610ad491906128a4565b9081526020016040518091039020604051806020016040529081600082018054600181600116156101000203166002900480601f016020809104026020016040519081016040528092919081815260200182805460018160011615610100020316600290048015610b865780601f10610b5b57610100808354040283529160200191610b86565b820191906000526020600020905b815481529060010190602001808311610b6957829003601f168201915b505050505081525050945060028660800151604051610ba5919061288d565b90815260200160405180910390206040518060c0016040529081600082018054600181600116156101000203166002900480601f016020809104026020016040519081016040528092919081815260200182805460018160011615610100020316600290048015610c575780601f10610c2c57610100808354040283529160200191610c57565b820191906000526020600020905b815481529060010190602001808311610c3a57829003601f168201915b50505050508152602001600182018054600181600116156101000203166002900480601f016020809104026020016040519081016040528092919081815260200182805460018160011615610100020316600290048015610cf95780601f10610cce57610100808354040283529160200191610cf9565b820191906000526020600020905b815481529060010190602001808311610cdc57829003601f168201915b50505050508152602001600282018054600181600116156101000203166002900480601f016020809104026020016040519081016040528092919081815260200182805460018160011615610100020316600290048015610d9b5780601f10610d7057610100808354040283529160200191610d9b565b820191906000526020600020905b815481529060010190602001808311610d7e57829003601f168201915b50505050508152602001600382018054600181600116156101000203166002900480601f016020809104026020016040519081016040528092919081815260200182805460018160011615610100020316600290048015610e3d5780601f10610e1257610100808354040283529160200191610e3d565b820191906000526020600020905b815481529060010190602001808311610e2057829003601f168201915b5050505050815260200160048201805480602002602001604051908101604052809291908181526020016000905b82821015610f27578382906000526020600020018054600181600116156101000203166002900480601f016020809104026020016040519081016040528092919081815260200182805460018160011615610100020316600290048015610f135780601f10610ee857610100808354040283529160200191610f13565b820191906000526020600020905b815481529060010190602001808311610ef657829003601f168201915b505050505081526020019060010190610e6b565b5050505081526020016005820160009054906101000a900460ff161515151581525050935060038660a00151604051610f60919061288d565b9081526020016040518091039020604051806080016040529081600082018054600181600116156101000203166002900480601f0160208091040260200160405190810160405280929190818152602001828054600181600116156101000203166002900480156110125780601f10610fe757610100808354040283529160200191611012565b820191906000526020600020905b815481529060010190602001808311610ff557829003601f168201915b50505050508152602001600182018054600181600116156101000203166002900480601f0160208091040260200160405190810160405280929190818152602001828054600181600116156101000203166002900480156110b45780601f10611089576101008083540402835291602001916110b4565b820191906000526020600020905b81548152906001019060200180831161109757829003601f168201915b50505050508152602001600282018054600181600116156101000203166002900480601f0160208091040260200160405190810160405280929190818152602001828054600181600116156101000203166002900480156111565780601f1061112b57610100808354040283529160200191611156565b820191906000526020600020905b81548152906001019060200180831161113957829003601f168201915b505050505081526020016003820160009054906101000a900460ff161515151581525050925060078760405161118c91906128a4565b9081526020016040518091039020805480602002602001604051908101604052809291908181526020016000905b82821015611276578382906000526020600020018054600181600116156101000203166002900480601f0160208091040260200160405190810160405280929190818152602001828054600181600116156101000203166002900480156112625780601f1061123757610100808354040283529160200191611262565b820191906000526020600020905b81548152906001019060200180831161124557829003601f168201915b5050505050815260200190600101906111ba565b50505050915060088760405161128c91906128a4565b9081526020016040518091039020805480602002602001604051908101604052809291908181526020016000905b82821015611376578382906000526020600020018054600181600116156101000203166002900480601f0160208091040260200160405190810160405280929190818152602001828054600181600116156101000203166002900480156113625780601f1061133757610100808354040283529160200191611362565b820191906000526020600020905b81548152906001019060200180831161134557829003601f168201915b5050505050815260200190600101906112ba565b50505050905091939550919395565b61138d611d7f565b60028260405161139d91906128a4565b90815260200160405180910390206040518060c0016040529081600082018054600181600116156101000203166002900480601f01602080910402602001604051908101604052809291908181526020018280546001816001161561010002031660029004801561144f5780601f106114245761010080835404028352916020019161144f565b820191906000526020600020905b81548152906001019060200180831161143257829003601f168201915b50505050508152602001600182018054600181600116156101000203166002900480601f0160208091040260200160405190810160405280929190818152602001828054600181600116156101000203166002900480156114f15780601f106114c6576101008083540402835291602001916114f1565b820191906000526020600020905b8154815290600101906020018083116114d457829003601f168201915b50505050508152602001600282018054600181600116156101000203166002900480601f0160208091040260200160405190810160405280929190818152602001828054600181600116156101000203166002900480156115935780601f1061156857610100808354040283529160200191611593565b820191906000526020600020905b81548152906001019060200180831161157657829003601f168201915b50505050508152602001600382018054600181600116156101000203166002900480601f0160208091040260200160405190810160405280929190818152602001828054600181600116156101000203166002900480156116355780601f1061160a57610100808354040283529160200191611635565b820191906000526020600020905b81548152906001019060200180831161161857829003601f168201915b5050505050815260200160048201805480602002602001604051908101604052809291908181526020016000905b8282101561171f578382906000526020600020018054600181600116156101000203166002900480601f01602080910402602001604051908101604052809291908181526020018280546001816001161561010002031660029004801561170b5780601f106116e05761010080835404028352916020019161170b565b820191906000526020600020905b8154815290600101906020018083116116ee57829003601f168201915b505050505081526020019060010190611663565b5050505081526020016005820160009054906101000a900460ff16151515158152505090508060a0015161174f57fe5b919050565b6000151560018460405161176891906128a4565b908152602001604051809103902060060160009054906101000a900460ff1615151461179057fe5b60011515600282608001516040516117a8919061288d565b908152602001604051809103902060050160009054906101000a900460ff161515146117d057fe5b6001151560038260a001516040516117e8919061288d565b908152602001604051809103902060030160009054906101000a900460ff1615151461181057fe5b8060018460405161182191906128a4565b9081526020016040518091039020600082015181600001908051906020019061184b929190611b99565b506020820151816001019080519060200190611868929190611b99565b506040820151816002019080519060200190611885929190611b99565b5060608201518160030190805190602001906118a2929190611b99565b5060808201518160040190805190602001906118bf929190611b99565b5060a08201518160050190805190602001906118dc929190611b99565b5060c08201518160060160006101000a81548160ff02191690831515021790555060e08201518160060160016101000a81548160ff02191690831515021790555090505060405180602001604052808381525060048460405161193f91906128a4565b90815260200160405180910390206000820151816000019080519060200190611969929190611b99565b509050506001808460405161197e91906128a4565b908152602001604051809103902060060160006101000a81548160ff021916908315150217905550505050565b6000151581606001511515146119bd57fe5b600015156003836040516119d191906128a4565b908152602001604051809103902060030160009054906101000a900460ff161515146119f957fe5b80600383604051611a0a91906128a4565b90815260200160405180910390206000820151816000019080519060200190611a34929190611b99565b506020820151816001019080519060200190611a51929190611b99565b506040820151816002019080519060200190611a6e929190611b99565b5060608201518160030160006101000a81548160ff0219169083151502179055509050506001600383604051611aa491906128a4565b908152602001604051809103902060030160006101000a81548160ff0219169083151502179055505050565b600182604051611ae091906128a4565b908152602001604051809103902060060160009054906101000a900460ff16611b0557fe5b600381604051611b1591906128a4565b908152602001604051809103902060030160009054906101000a900460ff16611b3a57fe5b600882604051611b4a91906128a4565b9081526020016040518091039020819080600181540180825580915050906001820390600052602060002001600090919290919091509080519060200190611b93929190611ca3565b50505050565b828054600181600116156101000203166002900490600052602060002090601f016020900481019282601f10611bda57805160ff1916838001178555611c08565b82800160010185558215611c08579182015b82811115611c07578251825591602001919060010190611bec565b5b509050611c159190611db7565b5090565b828054828255906000526020600020908101928215611c68579160200282015b82811115611c67578251829080519060200190611c57929190611b99565b5091602001919060010190611c39565b5b509050611c759190611ddc565b5090565b60405180608001604052806060815260200160608152602001606081526020016000151581525090565b828054600181600116156101000203166002900490600052602060002090601f016020900481019282601f10611ce457805160ff1916838001178555611d12565b82800160010185558215611d12579182015b82811115611d11578251825591602001919060010190611cf6565b5b509050611d1f9190611db7565b5090565b6040518061010001604052806060815260200160608152602001606081526020016060815260200160608152602001606081526020016000151581526020016000151581525090565b6040518060200160405280606081525090565b6040518060c0016040528060608152602001606081526020016060815260200160608152602001606081526020016000151581525090565b611dd991905b80821115611dd5576000816000905550600101611dbd565b5090565b90565b611e0591905b80821115611e015760008181611df89190611e08565b50600101611de2565b5090565b90565b50805460018160011615610100020316600290046000825580601f10611e2e5750611e4d565b601f016020900490600052602060002090810190611e4c9190611db7565b5b50565b600082601f830112611e6157600080fd5b8135611e74611e6f826129d2565b6129a5565b9150818183526020840193506020810190508360005b83811015611eba5781358601611ea08882611ed9565b845260208401935060208301925050600181019050611e8a565b5050505092915050565b600081359050611ed381612b87565b92915050565b600082601f830112611eea57600080fd5b8135611efd611ef8826129fa565b6129a5565b91508082526020830160208301858383011115611f1957600080fd5b611f24838284612b34565b50505092915050565b600082601f830112611f3e57600080fd5b8135611f51611f4c82612a26565b6129a5565b91508082526020830160208301858383011115611f6d57600080fd5b611f78838284612b34565b50505092915050565b600060c08284031215611f9357600080fd5b611f9d60c06129a5565b9050600082013567ffffffffffffffff811115611fb957600080fd5b611fc584828501611ed9565b600083015250602082013567ffffffffffffffff811115611fe557600080fd5b611ff184828501611ed9565b602083015250604082013567ffffffffffffffff81111561201157600080fd5b61201d84828501611ed9565b604083015250606082013567ffffffffffffffff81111561203d57600080fd5b61204984828501611ed9565b606083015250608082013567ffffffffffffffff81111561206957600080fd5b61207584828501611e50565b60808301525060a061208984828501611ec4565b60a08301525092915050565b600061010082840312156120a857600080fd5b6120b36101006129a5565b9050600082013567ffffffffffffffff8111156120cf57600080fd5b6120db84828501611ed9565b600083015250602082013567ffffffffffffffff8111156120fb57600080fd5b61210784828501611ed9565b602083015250604082013567ffffffffffffffff81111561212757600080fd5b61213384828501611ed9565b604083015250606082013567ffffffffffffffff81111561215357600080fd5b61215f84828501611ed9565b606083015250608082013567ffffffffffffffff81111561217f57600080fd5b61218b84828501611ed9565b60808301525060a082013567ffffffffffffffff8111156121ab57600080fd5b6121b784828501611ed9565b60a08301525060c06121cb84828501611ec4565b60c08301525060e06121df84828501611ec4565b60e08301525092915050565b6000608082840312156121fd57600080fd5b61220760806129a5565b9050600082013567ffffffffffffffff81111561222357600080fd5b61222f84828501611ed9565b600083015250602082013567ffffffffffffffff81111561224f57600080fd5b61225b84828501611ed9565b602083015250604082013567ffffffffffffffff81111561227b57600080fd5b61228784828501611ed9565b604083015250606061229b84828501611ec4565b60608301525092915050565b6000602082840312156122b957600080fd5b600082013567ffffffffffffffff8111156122d357600080fd5b6122df84828501611f2d565b91505092915050565b600080604083850312156122fb57600080fd5b600083013567ffffffffffffffff81111561231557600080fd5b61232185828601611f2d565b925050602083013567ffffffffffffffff81111561233e57600080fd5b61234a85828601611f2d565b9150509250929050565b60008060006060848603121561236957600080fd5b600084013567ffffffffffffffff81111561238357600080fd5b61238f86828701611f2d565b935050602084013567ffffffffffffffff8111156123ac57600080fd5b6123b886828701611f2d565b925050604084013567ffffffffffffffff8111156123d557600080fd5b6123e186828701612095565b9150509250925092565b600080604083850312156123fe57600080fd5b600083013567ffffffffffffffff81111561241857600080fd5b61242485828601611f2d565b925050602083013567ffffffffffffffff81111561244157600080fd5b61244d85828601611f81565b9150509250929050565b6000806040838503121561246a57600080fd5b600083013567ffffffffffffffff81111561248457600080fd5b61249085828601611f2d565b925050602083013567ffffffffffffffff8111156124ad57600080fd5b6124b9858286016121eb565b9150509250929050565b60006124cf8383612610565b905092915050565b6124e081612af6565b82525050565b60006124f182612a7d565b6124fb8185612ac9565b93508360208202850161250d85612a62565b8060005b85811015612549578484038952815161252a85826124c3565b945061253583612aab565b925060208a01995050600181019050612511565b50829750879550505050505092915050565b600061256682612a72565b6125708185612ab8565b93508360208202850161258285612a52565b8060005b858110156125be578484038952815161259f85826124c3565b94506125aa83612a9e565b925060208a01995050600181019050612586565b50829750879550505050505092915050565b6125d981612b08565b82525050565b60006125ea82612a93565b6125f48185612aeb565b9350612604818560208601612b43565b80840191505092915050565b600061261b82612a88565b6126258185612ada565b9350612635818560208601612b43565b61263e81612b76565b840191505092915050565b600061265482612a88565b61265e8185612aeb565b935061266e818560208601612b43565b80840191505092915050565b600060c08301600083015184820360008601526126978282612610565b915050602083015184820360208601526126b18282612610565b915050604083015184820360408601526126cb8282612610565b915050606083015184820360608601526126e58282612610565b915050608083015184820360808601526126ff828261255b565b91505060a083015161271460a08601826125d0565b508091505092915050565b600061010083016000830151848203600086015261273d8282612610565b915050602083015184820360208601526127578282612610565b915050604083015184820360408601526127718282612610565b9150506060830151848203606086015261278b8282612610565b915050608083015184820360808601526127a58282612610565b91505060a083015184820360a08601526127bf8282612610565b91505060c08301516127d460c08601826125d0565b5060e08301516127e760e08601826125d0565b508091505092915050565b6000608083016000830151848203600086015261280f8282612610565b915050602083015184820360208601526128298282612610565b915050604083015184820360408601526128438282612610565b915050606083015161285860608601826125d0565b508091505092915050565b600060208301600083015184820360008601526128808282612610565b9150508091505092915050565b60006128998284612649565b915081905092915050565b60006128b082846125df565b915081905092915050565b60006020820190506128d060008301846124d7565b92915050565b600060208201905081810360008301526128f0818461267a565b905092915050565b600060c0820190508181036000830152612912818961271f565b905081810360208301526129268188612863565b9050818103604083015261293a818761267a565b9050818103606083015261294e81866127f2565b9050818103608083015261296281856124e6565b905081810360a083015261297681846124e6565b9050979650505050505050565b6000602082019050818103600083015261299d81846127f2565b905092915050565b6000604051905081810181811067ffffffffffffffff821117156129c857600080fd5b8060405250919050565b600067ffffffffffffffff8211156129e957600080fd5b602082029050602081019050919050565b600067ffffffffffffffff821115612a1157600080fd5b601f19601f8301169050602081019050919050565b600067ffffffffffffffff821115612a3d57600080fd5b601f19601f8301169050602081019050919050565b6000819050602082019050919050565b6000819050602082019050919050565b600081519050919050565b600081519050919050565b600081519050919050565b600081519050919050565b6000602082019050919050565b6000602082019050919050565b600082825260208201905092915050565b600082825260208201905092915050565b600082825260208201905092915050565b600081905092915050565b6000612b0182612b14565b9050919050565b60008115159050919050565b600073ffffffffffffffffffffffffffffffffffffffff82169050919050565b82818337600083830152505050565b60005b83811015612b61578082015181840152602081019050612b46565b83811115612b70576000848401525b50505050565b6000601f19601f8301169050919050565b612b9081612b08565b8114612b9b57600080fd5b5056fea365627a7a72315820b2f00046666fae04652b328922a8429aac5b290fd9f07912beeefc613b3d308b6c6578706572696d656e74616cf564736f6c63430005100040",
  "source": "pragma solidity >=0.4.25 <0.7.0;\npragma experimental ABIEncoderV2;\n\ncontract Certificate {\n\n\tstruct Project {\n\t\tstring name;\n\t\tstring proposal_url;\n\t\tstring proposal_drive_id;\n\t\tstring proposal_name;\n\t\tstring ownerId;\n\t\tstring tutorId;\n\t\tbool exists;\n\t\tbool locked;\n\t}\n\n\tstruct Type {\n\t\tstring name;\n\t}\n\n\tstruct Contributor {\n\t\tstring name;\n\t\tstring surname;\n\t\tstring email;\n\t\tstring padron;\n\t\tstring[] careers;\n\t\tbool exists;\n\t}\n\n\tstruct Tutor {\n\t\tstring name;\n\t\tstring surname;\n\t\tstring email;\n\t\tbool exists;\n\t}\n\n\taddress public auditor;\n\n\tmapping(string => Project) projects_set;\n\tmapping(string => Contributor) contributors_set;\n\tmapping(string => Tutor) tutors_set;\n\n\tmapping(string => Type) project_type_set;\n\tmapping(string => Contributor) project_owner_set;\n\tmapping(string => Tutor) project_tutor_set;\n\tmapping(string => string[]) project_contributors_set;\n\tmapping(string => string[]) project_cotutors_set;\n\n\tconstructor() public {\n\t\tauditor = msg.sender;\n\t}\n\n\tfunction createContributor(string memory _id, Contributor memory _data) public {\n\t\t//check that doesn't exists\n\t\tassert(_data.exists == false);\n\t\tassert(contributors_set[_id].exists == false);\n\t\tcontributors_set[_id] = _data;\n\t\tcontributors_set[_id].exists = true;\n\t}\n\n\tfunction getContributor(string memory _id) public view returns(Contributor memory contributor){\n\t\t//check that contributor exists\n\t\tcontributor = contributors_set[_id];\n\t\tassert(contributor.exists);\n\t}\n\n\tfunction createTutor(string memory _id, Tutor memory _data) public {\n\t\t//check that doesn't exists\n\t\tassert(_data.exists == false);\n\t\tassert(tutors_set[_id].exists == false);\n\t\ttutors_set[_id] = _data;\n\t\ttutors_set[_id].exists = true;\n\t}\n\n\tfunction getTutor(string memory _id) public view returns(Tutor memory tutor){\n\t\t//check that tutor exists\n\t\ttutor = tutors_set[_id];\n\t\tassert(tutor.exists);\n\t}\n\n\tfunction createProject(string memory _id, string memory _type_name, Project memory _data) public {\n\t\t//check that doesn't exists\n\t\tassert(projects_set[_id].exists == false);\n\t\t//check that owner exists\n\t\tassert(contributors_set[_data.ownerId].exists == true);\n\t\t//check that tutor exists\n\t\tassert(tutors_set[_data.tutorId].exists == true);\n\t\tprojects_set[_id] = _data;\n\t\tproject_type_set[_id] = Type(_type_name);\n\t\tprojects_set[_id].exists = true;\n\t}\n\n\tfunction addProjectContributor(string memory _project_id, string memory _contributor_id) public {\n\t\t//check that project exists\n\t\tassert(projects_set[_project_id].exists);\n\t\t//check that contributor exists\n\t\tassert(contributors_set[_contributor_id].exists);\n\n\t\tproject_contributors_set[_project_id].push(_contributor_id);\n\t}\n\n\tfunction addProjectTutor(string memory _project_id, string memory _tutor_id) public {\n\t\t//check that project exists\n\t\tassert(projects_set[_project_id].exists);\n\t\t//check that contributor exists\n\t\tassert(tutors_set[_tutor_id].exists);\n\n\t\tproject_cotutors_set[_project_id].push(_tutor_id);\n\t}\n\n\tfunction getProject(string memory _id) public view returns(Project memory project,\n\t\t\t\t\t\t\t\t\t\t\t\t\t\t\t   Type memory oftype,\n\t\t\t\t\t\t\t\t\t\t\t\t\t\t       Contributor memory owner,\n\t\t\t\t\t\t\t\t\t\t\t\t\t\t\t   Tutor memory tutor,\n\t\t\t\t\t\t\t\t\t\t\t\t\t\t\t   string[] memory contributors,\n\t\t\t\t\t\t\t\t\t\t\t\t\t\t\t   string[] memory cotutors){\n\t\t//check that project exists\n\t\tproject = projects_set[_id];\n\t\tassert(project.exists);\n\t\toftype = project_type_set[_id];\n\t\towner = contributors_set[project.ownerId];\n\t\ttutor = tutors_set[project.tutorId];\n\t\tcontributors = project_contributors_set[_id];\n\t\tcotutors = project_cotutors_set[_id];\n\t}\n}\n",
  "sourcePath": "/Users/mvega/node-certificate/ledger/contracts/Certificate.sol",
  "compiler": {
    "name": "solc",
    "version": "0.5.16+commit.9c3226ce.Emscripten.clang"
  },
  "schemaVersion": "3.1.0",
  "updatedAt": "2020-05-08T01:48:29.594Z",
  "devdoc": {
    "methods": {}
  },
  "userdoc": {
    "methods": {}
  }
}