{
  "contractName": "Certificate",
  "abi": [
    {
      "inputs": [],
      "payable": false,
      "stateMutability": "nonpayable",
      "type": "constructor"
    },
    {
      "constant": true,
      "inputs": [],
      "name": "auditor",
      "outputs": [
        {
          "internalType": "address",
          "name": "",
          "type": "address"
        }
      ],
      "payable": false,
      "stateMutability": "view",
      "type": "function"
    },
    {
      "constant": true,
      "inputs": [],
      "name": "version",
      "outputs": [
        {
          "internalType": "uint256",
          "name": "",
          "type": "uint256"
        }
      ],
      "payable": false,
      "stateMutability": "view",
      "type": "function"
    },
    {
      "constant": false,
      "inputs": [
        {
          "components": [
            {
              "internalType": "string",
              "name": "id",
              "type": "string"
            },
            {
              "internalType": "string",
              "name": "name",
              "type": "string"
            },
            {
              "internalType": "string",
              "name": "surname",
              "type": "string"
            },
            {
              "internalType": "string",
              "name": "email",
              "type": "string"
            },
            {
              "internalType": "string",
              "name": "padron",
              "type": "string"
            },
            {
              "internalType": "string[]",
              "name": "careers",
              "type": "string[]"
            },
            {
              "internalType": "bool",
              "name": "exists",
              "type": "bool"
            }
          ],
          "internalType": "struct Certificate.Contributor",
          "name": "_data",
          "type": "tuple"
        }
      ],
      "name": "createContributor",
      "outputs": [],
      "payable": false,
      "stateMutability": "nonpayable",
      "type": "function"
    },
    {
      "constant": true,
      "inputs": [
        {
          "internalType": "string",
          "name": "_id",
          "type": "string"
        }
      ],
      "name": "getContributor",
      "outputs": [
        {
          "components": [
            {
              "internalType": "string",
              "name": "id",
              "type": "string"
            },
            {
              "internalType": "string",
              "name": "name",
              "type": "string"
            },
            {
              "internalType": "string",
              "name": "surname",
              "type": "string"
            },
            {
              "internalType": "string",
              "name": "email",
              "type": "string"
            },
            {
              "internalType": "string",
              "name": "padron",
              "type": "string"
            },
            {
              "internalType": "string[]",
              "name": "careers",
              "type": "string[]"
            },
            {
              "internalType": "bool",
              "name": "exists",
              "type": "bool"
            }
          ],
          "internalType": "struct Certificate.Contributor",
          "name": "contributor",
          "type": "tuple"
        }
      ],
      "payable": false,
      "stateMutability": "view",
      "type": "function"
    },
    {
      "constant": false,
      "inputs": [
        {
          "components": [
            {
              "internalType": "string",
              "name": "id",
              "type": "string"
            },
            {
              "internalType": "string",
              "name": "name",
              "type": "string"
            },
            {
              "internalType": "string",
              "name": "surname",
              "type": "string"
            },
            {
              "internalType": "string",
              "name": "email",
              "type": "string"
            },
            {
              "internalType": "bool",
              "name": "exists",
              "type": "bool"
            }
          ],
          "internalType": "struct Certificate.Tutor",
          "name": "_data",
          "type": "tuple"
        }
      ],
      "name": "createTutor",
      "outputs": [],
      "payable": false,
      "stateMutability": "nonpayable",
      "type": "function"
    },
    {
      "constant": true,
      "inputs": [
        {
          "internalType": "string",
          "name": "_id",
          "type": "string"
        }
      ],
      "name": "getTutor",
      "outputs": [
        {
          "components": [
            {
              "internalType": "string",
              "name": "id",
              "type": "string"
            },
            {
              "internalType": "string",
              "name": "name",
              "type": "string"
            },
            {
              "internalType": "string",
              "name": "surname",
              "type": "string"
            },
            {
              "internalType": "string",
              "name": "email",
              "type": "string"
            },
            {
              "internalType": "bool",
              "name": "exists",
              "type": "bool"
            }
          ],
          "internalType": "struct Certificate.Tutor",
          "name": "tutor",
          "type": "tuple"
        }
      ],
      "payable": false,
      "stateMutability": "view",
      "type": "function"
    },
    {
      "constant": false,
      "inputs": [
        {
          "internalType": "string",
          "name": "_type_name",
          "type": "string"
        },
        {
          "components": [
            {
              "internalType": "string",
              "name": "id",
              "type": "string"
            },
            {
              "internalType": "string",
              "name": "name",
              "type": "string"
            },
            {
              "internalType": "string",
              "name": "proposal_url",
              "type": "string"
            },
            {
              "internalType": "string",
              "name": "proposal_drive_id",
              "type": "string"
            },
            {
              "internalType": "string",
              "name": "proposal_name",
              "type": "string"
            },
            {
              "internalType": "string",
              "name": "creatorId",
              "type": "string"
            },
            {
              "internalType": "string",
              "name": "tutorId",
              "type": "string"
            },
            {
              "internalType": "bool",
              "name": "exists",
              "type": "bool"
            },
            {
              "internalType": "bool",
              "name": "locked",
              "type": "bool"
            }
          ],
          "internalType": "struct Certificate.Project",
          "name": "_data",
          "type": "tuple"
        }
      ],
      "name": "createProject",
      "outputs": [],
      "payable": false,
      "stateMutability": "nonpayable",
      "type": "function"
    },
    {
      "constant": false,
      "inputs": [
        {
          "internalType": "string",
          "name": "_project_id",
          "type": "string"
        },
        {
          "internalType": "string",
          "name": "_contributor_id",
          "type": "string"
        }
      ],
      "name": "addProjectContributor",
      "outputs": [],
      "payable": false,
      "stateMutability": "nonpayable",
      "type": "function"
    },
    {
      "constant": false,
      "inputs": [
        {
          "internalType": "string",
          "name": "_project_id",
          "type": "string"
        },
        {
          "internalType": "string",
          "name": "_tutor_id",
          "type": "string"
        }
      ],
      "name": "addProjectTutor",
      "outputs": [],
      "payable": false,
      "stateMutability": "nonpayable",
      "type": "function"
    },
    {
      "constant": true,
      "inputs": [
        {
          "internalType": "string",
          "name": "_id",
          "type": "string"
        }
      ],
      "name": "getProject",
      "outputs": [
        {
          "components": [
            {
              "internalType": "string",
              "name": "id",
              "type": "string"
            },
            {
              "internalType": "string",
              "name": "name",
              "type": "string"
            },
            {
              "internalType": "string",
              "name": "proposal_url",
              "type": "string"
            },
            {
              "internalType": "string",
              "name": "proposal_drive_id",
              "type": "string"
            },
            {
              "internalType": "string",
              "name": "proposal_name",
              "type": "string"
            },
            {
              "internalType": "string",
              "name": "creatorId",
              "type": "string"
            },
            {
              "internalType": "string",
              "name": "tutorId",
              "type": "string"
            },
            {
              "internalType": "bool",
              "name": "exists",
              "type": "bool"
            },
            {
              "internalType": "bool",
              "name": "locked",
              "type": "bool"
            }
          ],
          "internalType": "struct Certificate.Project",
          "name": "project",
          "type": "tuple"
        },
        {
          "components": [
            {
              "internalType": "string",
              "name": "name",
              "type": "string"
            }
          ],
          "internalType": "struct Certificate.Type",
          "name": "oftype",
          "type": "tuple"
        },
        {
          "components": [
            {
              "internalType": "string",
              "name": "id",
              "type": "string"
            },
            {
              "internalType": "string",
              "name": "name",
              "type": "string"
            },
            {
              "internalType": "string",
              "name": "surname",
              "type": "string"
            },
            {
              "internalType": "string",
              "name": "email",
              "type": "string"
            },
            {
              "internalType": "string",
              "name": "padron",
              "type": "string"
            },
            {
              "internalType": "string[]",
              "name": "careers",
              "type": "string[]"
            },
            {
              "internalType": "bool",
              "name": "exists",
              "type": "bool"
            }
          ],
          "internalType": "struct Certificate.Contributor",
          "name": "creator",
          "type": "tuple"
        },
        {
          "components": [
            {
              "internalType": "string",
              "name": "id",
              "type": "string"
            },
            {
              "internalType": "string",
              "name": "name",
              "type": "string"
            },
            {
              "internalType": "string",
              "name": "surname",
              "type": "string"
            },
            {
              "internalType": "string",
              "name": "email",
              "type": "string"
            },
            {
              "internalType": "bool",
              "name": "exists",
              "type": "bool"
            }
          ],
          "internalType": "struct Certificate.Tutor",
          "name": "tutor",
          "type": "tuple"
        },
        {
          "internalType": "string[]",
          "name": "contributors",
          "type": "string[]"
        },
        {
          "internalType": "string[]",
          "name": "cotutors",
          "type": "string[]"
        }
      ],
      "payable": false,
      "stateMutability": "view",
      "type": "function"
    }
  ],
  "bytecode": "0x6080604052600160005534801561001557600080fd5b5033600160006101000a81548173ffffffffffffffffffffffffffffffffffffffff021916908373ffffffffffffffffffffffffffffffffffffffff160217905550613057806100666000396000f3fe608060405234801561001057600080fd5b506004361061009e5760003560e01c80635bb5dc0d116100665780635bb5dc0d14610160578063ad516a9314610190578063b5468e57146101ac578063c817dda1146101c8578063ca40d0cc146101e45761009e565b80633ec045a6146100a35780634067289d146100c15780634e23a920146100f15780634fa691e21461010d57806354fd4d5014610142575b600080fd5b6100ab610200565b6040516100b89190612d0c565b60405180910390f35b6100db60048036036100d6919081019061271a565b610226565b6040516100e89190612dd4565b60405180910390f35b61010b6004803603610106919081019061275b565b61050c565b005b6101276004803603610122919081019061271a565b6105d5565b60405161013996959493929190612d49565b60405180910390f35b61014a6114d8565b6040516101579190612df6565b60405180910390f35b61017a6004803603610175919081019061271a565b6114de565b6040516101879190612d27565b60405180910390f35b6101aa60048036036101a59190810190612874565b61194f565b005b6101c660048036036101c1919081019061275b565b611a9c565b005b6101e260048036036101dd9190810190612833565b611b65565b005b6101fe60048036036101f991908101906127c7565b611cec565b005b600160009054906101000a900473ffffffffffffffffffffffffffffffffffffffff1681565b61022e611f71565b60048260405161023e9190612cf5565b90815260200160405180910390206040518060a0016040529081600082018054600181600116156101000203166002900480601f0160208091040260200160405190810160405280929190818152602001828054600181600116156101000203166002900480156102f05780601f106102c5576101008083540402835291602001916102f0565b820191906000526020600020905b8154815290600101906020018083116102d357829003601f168201915b50505050508152602001600182018054600181600116156101000203166002900480601f0160208091040260200160405190810160405280929190818152602001828054600181600116156101000203166002900480156103925780601f1061036757610100808354040283529160200191610392565b820191906000526020600020905b81548152906001019060200180831161037557829003601f168201915b50505050508152602001600282018054600181600116156101000203166002900480601f0160208091040260200160405190810160405280929190818152602001828054600181600116156101000203166002900480156104345780601f1061040957610100808354040283529160200191610434565b820191906000526020600020905b81548152906001019060200180831161041757829003601f168201915b50505050508152602001600382018054600181600116156101000203166002900480601f0160208091040260200160405190810160405280929190818152602001828054600181600116156101000203166002900480156104d65780601f106104ab576101008083540402835291602001916104d6565b820191906000526020600020905b8154815290600101906020018083116104b957829003601f168201915b505050505081526020016004820160009054906101000a900460ff1615151515815250509050806080015161050757fe5b919050565b60028260405161051c9190612cf5565b908152602001604051809103902060070160009054906101000a900460ff1661054157fe5b6003816040516105519190612cf5565b908152602001604051809103902060060160009054906101000a900460ff1661057657fe5b6008826040516105869190612cf5565b90815260200160405180910390208190806001815401808255809150509060018203906000526020600020016000909192909190915090805190602001906105cf929190611fa2565b50505050565b6105dd612022565b6105e5612072565b6105ed612085565b6105f5611f71565b6060806002876040516106089190612cf5565b908152602001604051809103902060405180610120016040529081600082018054600181600116156101000203166002900480601f0160208091040260200160405190810160405280929190818152602001828054600181600116156101000203166002900480156106bb5780601f10610690576101008083540402835291602001916106bb565b820191906000526020600020905b81548152906001019060200180831161069e57829003601f168201915b50505050508152602001600182018054600181600116156101000203166002900480601f01602080910402602001604051908101604052809291908181526020018280546001816001161561010002031660029004801561075d5780601f106107325761010080835404028352916020019161075d565b820191906000526020600020905b81548152906001019060200180831161074057829003601f168201915b50505050508152602001600282018054600181600116156101000203166002900480601f0160208091040260200160405190810160405280929190818152602001828054600181600116156101000203166002900480156107ff5780601f106107d4576101008083540402835291602001916107ff565b820191906000526020600020905b8154815290600101906020018083116107e257829003601f168201915b50505050508152602001600382018054600181600116156101000203166002900480601f0160208091040260200160405190810160405280929190818152602001828054600181600116156101000203166002900480156108a15780601f10610876576101008083540402835291602001916108a1565b820191906000526020600020905b81548152906001019060200180831161088457829003601f168201915b50505050508152602001600482018054600181600116156101000203166002900480601f0160208091040260200160405190810160405280929190818152602001828054600181600116156101000203166002900480156109435780601f1061091857610100808354040283529160200191610943565b820191906000526020600020905b81548152906001019060200180831161092657829003601f168201915b50505050508152602001600582018054600181600116156101000203166002900480601f0160208091040260200160405190810160405280929190818152602001828054600181600116156101000203166002900480156109e55780601f106109ba576101008083540402835291602001916109e5565b820191906000526020600020905b8154815290600101906020018083116109c857829003601f168201915b50505050508152602001600682018054600181600116156101000203166002900480601f016020809104026020016040519081016040528092919081815260200182805460018160011615610100020316600290048015610a875780601f10610a5c57610100808354040283529160200191610a87565b820191906000526020600020905b815481529060010190602001808311610a6a57829003601f168201915b505050505081526020016007820160009054906101000a900460ff161515151581526020016007820160019054906101000a900460ff16151515158152505095508560e00151610ad357fe5b600587604051610ae39190612cf5565b9081526020016040518091039020604051806020016040529081600082018054600181600116156101000203166002900480601f016020809104026020016040519081016040528092919081815260200182805460018160011615610100020316600290048015610b955780601f10610b6a57610100808354040283529160200191610b95565b820191906000526020600020905b815481529060010190602001808311610b7857829003601f168201915b505050505081525050945060038660a00151604051610bb49190612cde565b90815260200160405180910390206040518060e0016040529081600082018054600181600116156101000203166002900480601f016020809104026020016040519081016040528092919081815260200182805460018160011615610100020316600290048015610c665780601f10610c3b57610100808354040283529160200191610c66565b820191906000526020600020905b815481529060010190602001808311610c4957829003601f168201915b50505050508152602001600182018054600181600116156101000203166002900480601f016020809104026020016040519081016040528092919081815260200182805460018160011615610100020316600290048015610d085780601f10610cdd57610100808354040283529160200191610d08565b820191906000526020600020905b815481529060010190602001808311610ceb57829003601f168201915b50505050508152602001600282018054600181600116156101000203166002900480601f016020809104026020016040519081016040528092919081815260200182805460018160011615610100020316600290048015610daa5780601f10610d7f57610100808354040283529160200191610daa565b820191906000526020600020905b815481529060010190602001808311610d8d57829003601f168201915b50505050508152602001600382018054600181600116156101000203166002900480601f016020809104026020016040519081016040528092919081815260200182805460018160011615610100020316600290048015610e4c5780601f10610e2157610100808354040283529160200191610e4c565b820191906000526020600020905b815481529060010190602001808311610e2f57829003601f168201915b50505050508152602001600482018054600181600116156101000203166002900480601f016020809104026020016040519081016040528092919081815260200182805460018160011615610100020316600290048015610eee5780601f10610ec357610100808354040283529160200191610eee565b820191906000526020600020905b815481529060010190602001808311610ed157829003601f168201915b5050505050815260200160058201805480602002602001604051908101604052809291908181526020016000905b82821015610fd8578382906000526020600020018054600181600116156101000203166002900480601f016020809104026020016040519081016040528092919081815260200182805460018160011615610100020316600290048015610fc45780601f10610f9957610100808354040283529160200191610fc4565b820191906000526020600020905b815481529060010190602001808311610fa757829003601f168201915b505050505081526020019060010190610f1c565b5050505081526020016006820160009054906101000a900460ff161515151581525050935060048660c001516040516110119190612cde565b90815260200160405180910390206040518060a0016040529081600082018054600181600116156101000203166002900480601f0160208091040260200160405190810160405280929190818152602001828054600181600116156101000203166002900480156110c35780601f10611098576101008083540402835291602001916110c3565b820191906000526020600020905b8154815290600101906020018083116110a657829003601f168201915b50505050508152602001600182018054600181600116156101000203166002900480601f0160208091040260200160405190810160405280929190818152602001828054600181600116156101000203166002900480156111655780601f1061113a57610100808354040283529160200191611165565b820191906000526020600020905b81548152906001019060200180831161114857829003601f168201915b50505050508152602001600282018054600181600116156101000203166002900480601f0160208091040260200160405190810160405280929190818152602001828054600181600116156101000203166002900480156112075780601f106111dc57610100808354040283529160200191611207565b820191906000526020600020905b8154815290600101906020018083116111ea57829003601f168201915b50505050508152602001600382018054600181600116156101000203166002900480601f0160208091040260200160405190810160405280929190818152602001828054600181600116156101000203166002900480156112a95780601f1061127e576101008083540402835291602001916112a9565b820191906000526020600020905b81548152906001019060200180831161128c57829003601f168201915b505050505081526020016004820160009054906101000a900460ff16151515158152505092506008876040516112df9190612cf5565b9081526020016040518091039020805480602002602001604051908101604052809291908181526020016000905b828210156113c9578382906000526020600020018054600181600116156101000203166002900480601f0160208091040260200160405190810160405280929190818152602001828054600181600116156101000203166002900480156113b55780601f1061138a576101008083540402835291602001916113b5565b820191906000526020600020905b81548152906001019060200180831161139857829003601f168201915b50505050508152602001906001019061130d565b5050505091506009876040516113df9190612cf5565b9081526020016040518091039020805480602002602001604051908101604052809291908181526020016000905b828210156114c9578382906000526020600020018054600181600116156101000203166002900480601f0160208091040260200160405190810160405280929190818152602001828054600181600116156101000203166002900480156114b55780601f1061148a576101008083540402835291602001916114b5565b820191906000526020600020905b81548152906001019060200180831161149857829003601f168201915b50505050508152602001906001019061140d565b50505050905091939550919395565b60005481565b6114e6612085565b6003826040516114f69190612cf5565b90815260200160405180910390206040518060e0016040529081600082018054600181600116156101000203166002900480601f0160208091040260200160405190810160405280929190818152602001828054600181600116156101000203166002900480156115a85780601f1061157d576101008083540402835291602001916115a8565b820191906000526020600020905b81548152906001019060200180831161158b57829003601f168201915b50505050508152602001600182018054600181600116156101000203166002900480601f01602080910402602001604051908101604052809291908181526020018280546001816001161561010002031660029004801561164a5780601f1061161f5761010080835404028352916020019161164a565b820191906000526020600020905b81548152906001019060200180831161162d57829003601f168201915b50505050508152602001600282018054600181600116156101000203166002900480601f0160208091040260200160405190810160405280929190818152602001828054600181600116156101000203166002900480156116ec5780601f106116c1576101008083540402835291602001916116ec565b820191906000526020600020905b8154815290600101906020018083116116cf57829003601f168201915b50505050508152602001600382018054600181600116156101000203166002900480601f01602080910402602001604051908101604052809291908181526020018280546001816001161561010002031660029004801561178e5780601f106117635761010080835404028352916020019161178e565b820191906000526020600020905b81548152906001019060200180831161177157829003601f168201915b50505050508152602001600482018054600181600116156101000203166002900480601f0160208091040260200160405190810160405280929190818152602001828054600181600116156101000203166002900480156118305780601f1061180557610100808354040283529160200191611830565b820191906000526020600020905b81548152906001019060200180831161181357829003601f168201915b5050505050815260200160058201805480602002602001604051908101604052809291908181526020016000905b8282101561191a578382906000526020600020018054600181600116156101000203166002900480601f0160208091040260200160405190810160405280929190818152602001828054600181600116156101000203166002900480156119065780601f106118db57610100808354040283529160200191611906565b820191906000526020600020905b8154815290600101906020018083116118e957829003601f168201915b50505050508152602001906001019061185e565b5050505081526020016006820160009054906101000a900460ff16151515158152505090508060c0015161194a57fe5b919050565b60001515816080015115151461196157fe5b60001515600482600001516040516119799190612cde565b908152602001604051809103902060040160009054906101000a900460ff161515146119a157fe5b80600482600001516040516119b69190612cde565b908152602001604051809103902060008201518160000190805190602001906119e09291906120c4565b5060208201518160010190805190602001906119fd9291906120c4565b506040820151816002019080519060200190611a1a9291906120c4565b506060820151816003019080519060200190611a379291906120c4565b5060808201518160040160006101000a81548160ff021916908315150217905550905050600160048260000151604051611a719190612cde565b908152602001604051809103902060040160006101000a81548160ff02191690831515021790555050565b600282604051611aac9190612cf5565b908152602001604051809103902060070160009054906101000a900460ff16611ad157fe5b600481604051611ae19190612cf5565b908152602001604051809103902060040160009054906101000a900460ff16611b0657fe5b600982604051611b169190612cf5565b9081526020016040518091039020819080600181540180825580915050906001820390600052602060002001600090919290919091509080519060200190611b5f929190611fa2565b50505050565b600015158160c00151151514611b7757fe5b6000151560038260000151604051611b8f9190612cde565b908152602001604051809103902060060160009054906101000a900460ff16151514611bb757fe5b8060038260000151604051611bcc9190612cde565b90815260200160405180910390206000820151816000019080519060200190611bf69291906120c4565b506020820151816001019080519060200190611c139291906120c4565b506040820151816002019080519060200190611c309291906120c4565b506060820151816003019080519060200190611c4d9291906120c4565b506080820151816004019080519060200190611c6a9291906120c4565b5060a0820151816005019080519060200190611c87929190612144565b5060c08201518160060160006101000a81548160ff021916908315150217905550905050600160038260000151604051611cc19190612cde565b908152602001604051809103902060060160006101000a81548160ff02191690831515021790555050565b6000151560028260000151604051611d049190612cde565b908152602001604051809103902060070160009054906101000a900460ff16151514611d2c57fe5b6001151560038260a00151604051611d449190612cde565b908152602001604051809103902060060160009054906101000a900460ff16151514611d6c57fe5b6001151560048260c00151604051611d849190612cde565b908152602001604051809103902060040160009054906101000a900460ff16151514611dac57fe5b8060028260000151604051611dc19190612cde565b90815260200160405180910390206000820151816000019080519060200190611deb9291906120c4565b506020820151816001019080519060200190611e089291906120c4565b506040820151816002019080519060200190611e259291906120c4565b506060820151816003019080519060200190611e429291906120c4565b506080820151816004019080519060200190611e5f9291906120c4565b5060a0820151816005019080519060200190611e7c9291906120c4565b5060c0820151816006019080519060200190611e999291906120c4565b5060e08201518160070160006101000a81548160ff0219169083151502179055506101008201518160070160016101000a81548160ff02191690831515021790555090505060405180602001604052808381525060058260000151604051611f019190612cde565b90815260200160405180910390206000820151816000019080519060200190611f2b9291906120c4565b50905050600160028260000151604051611f459190612cde565b908152602001604051809103902060070160006101000a81548160ff0219169083151502179055505050565b6040518060a00160405280606081526020016060815260200160608152602001606081526020016000151581525090565b828054600181600116156101000203166002900490600052602060002090601f016020900481019282601f10611fe357805160ff1916838001178555612011565b82800160010185558215612011579182015b82811115612010578251825591602001919060010190611ff5565b5b50905061201e91906121a4565b5090565b604051806101200160405280606081526020016060815260200160608152602001606081526020016060815260200160608152602001606081526020016000151581526020016000151581525090565b6040518060200160405280606081525090565b6040518060e001604052806060815260200160608152602001606081526020016060815260200160608152602001606081526020016000151581525090565b828054600181600116156101000203166002900490600052602060002090601f016020900481019282601f1061210557805160ff1916838001178555612133565b82800160010185558215612133579182015b82811115612132578251825591602001919060010190612117565b5b50905061214091906121a4565b5090565b828054828255906000526020600020908101928215612193579160200282015b828111156121925782518290805190602001906121829291906120c4565b5091602001919060010190612164565b5b5090506121a091906121c9565b5090565b6121c691905b808211156121c25760008160009055506001016121aa565b5090565b90565b6121f291905b808211156121ee57600081816121e591906121f5565b506001016121cf565b5090565b90565b50805460018160011615610100020316600290046000825580601f1061221b575061223a565b601f01602090049060005260206000209081019061223991906121a4565b5b50565b600082601f83011261224e57600080fd5b813561226161225c82612e3e565b612e11565b9150818183526020840193506020810190508360005b838110156122a7578135860161228d88826122c6565b845260208401935060208301925050600181019050612277565b5050505092915050565b6000813590506122c081612ffd565b92915050565b600082601f8301126122d757600080fd5b81356122ea6122e582612e66565b612e11565b9150808252602083016020830185838301111561230657600080fd5b612311838284612faa565b50505092915050565b600082601f83011261232b57600080fd5b813561233e61233982612e92565b612e11565b9150808252602083016020830185838301111561235a57600080fd5b612365838284612faa565b50505092915050565b600060e0828403121561238057600080fd5b61238a60e0612e11565b9050600082013567ffffffffffffffff8111156123a657600080fd5b6123b2848285016122c6565b600083015250602082013567ffffffffffffffff8111156123d257600080fd5b6123de848285016122c6565b602083015250604082013567ffffffffffffffff8111156123fe57600080fd5b61240a848285016122c6565b604083015250606082013567ffffffffffffffff81111561242a57600080fd5b612436848285016122c6565b606083015250608082013567ffffffffffffffff81111561245657600080fd5b612462848285016122c6565b60808301525060a082013567ffffffffffffffff81111561248257600080fd5b61248e8482850161223d565b60a08301525060c06124a2848285016122b1565b60c08301525092915050565b600061012082840312156124c157600080fd5b6124cc610120612e11565b9050600082013567ffffffffffffffff8111156124e857600080fd5b6124f4848285016122c6565b600083015250602082013567ffffffffffffffff81111561251457600080fd5b612520848285016122c6565b602083015250604082013567ffffffffffffffff81111561254057600080fd5b61254c848285016122c6565b604083015250606082013567ffffffffffffffff81111561256c57600080fd5b612578848285016122c6565b606083015250608082013567ffffffffffffffff81111561259857600080fd5b6125a4848285016122c6565b60808301525060a082013567ffffffffffffffff8111156125c457600080fd5b6125d0848285016122c6565b60a08301525060c082013567ffffffffffffffff8111156125f057600080fd5b6125fc848285016122c6565b60c08301525060e0612610848285016122b1565b60e083015250610100612625848285016122b1565b6101008301525092915050565b600060a0828403121561264457600080fd5b61264e60a0612e11565b9050600082013567ffffffffffffffff81111561266a57600080fd5b612676848285016122c6565b600083015250602082013567ffffffffffffffff81111561269657600080fd5b6126a2848285016122c6565b602083015250604082013567ffffffffffffffff8111156126c257600080fd5b6126ce848285016122c6565b604083015250606082013567ffffffffffffffff8111156126ee57600080fd5b6126fa848285016122c6565b606083015250608061270e848285016122b1565b60808301525092915050565b60006020828403121561272c57600080fd5b600082013567ffffffffffffffff81111561274657600080fd5b6127528482850161231a565b91505092915050565b6000806040838503121561276e57600080fd5b600083013567ffffffffffffffff81111561278857600080fd5b6127948582860161231a565b925050602083013567ffffffffffffffff8111156127b157600080fd5b6127bd8582860161231a565b9150509250929050565b600080604083850312156127da57600080fd5b600083013567ffffffffffffffff8111156127f457600080fd5b6128008582860161231a565b925050602083013567ffffffffffffffff81111561281d57600080fd5b612829858286016124ae565b9150509250929050565b60006020828403121561284557600080fd5b600082013567ffffffffffffffff81111561285f57600080fd5b61286b8482850161236e565b91505092915050565b60006020828403121561288657600080fd5b600082013567ffffffffffffffff8111156128a057600080fd5b6128ac84828501612632565b91505092915050565b60006128c18383612a02565b905092915050565b6128d281612f62565b82525050565b60006128e382612ee9565b6128ed8185612f35565b9350836020820285016128ff85612ece565b8060005b8581101561293b578484038952815161291c85826128b5565b945061292783612f17565b925060208a01995050600181019050612903565b50829750879550505050505092915050565b600061295882612ede565b6129628185612f24565b93508360208202850161297485612ebe565b8060005b858110156129b0578484038952815161299185826128b5565b945061299c83612f0a565b925060208a01995050600181019050612978565b50829750879550505050505092915050565b6129cb81612f74565b82525050565b60006129dc82612eff565b6129e68185612f57565b93506129f6818560208601612fb9565b80840191505092915050565b6000612a0d82612ef4565b612a178185612f46565b9350612a27818560208601612fb9565b612a3081612fec565b840191505092915050565b6000612a4682612ef4565b612a508185612f57565b9350612a60818560208601612fb9565b80840191505092915050565b600060e0830160008301518482036000860152612a898282612a02565b91505060208301518482036020860152612aa38282612a02565b91505060408301518482036040860152612abd8282612a02565b91505060608301518482036060860152612ad78282612a02565b91505060808301518482036080860152612af18282612a02565b91505060a083015184820360a0860152612b0b828261294d565b91505060c0830151612b2060c08601826129c2565b508091505092915050565b6000610120830160008301518482036000860152612b498282612a02565b91505060208301518482036020860152612b638282612a02565b91505060408301518482036040860152612b7d8282612a02565b91505060608301518482036060860152612b978282612a02565b91505060808301518482036080860152612bb18282612a02565b91505060a083015184820360a0860152612bcb8282612a02565b91505060c083015184820360c0860152612be58282612a02565b91505060e0830151612bfa60e08601826129c2565b50610100830151612c0f6101008601826129c2565b508091505092915050565b600060a0830160008301518482036000860152612c378282612a02565b91505060208301518482036020860152612c518282612a02565b91505060408301518482036040860152612c6b8282612a02565b91505060608301518482036060860152612c858282612a02565b9150506080830151612c9a60808601826129c2565b508091505092915050565b60006020830160008301518482036000860152612cc28282612a02565b9150508091505092915050565b612cd881612fa0565b82525050565b6000612cea8284612a3b565b915081905092915050565b6000612d0182846129d1565b915081905092915050565b6000602082019050612d2160008301846128c9565b92915050565b60006020820190508181036000830152612d418184612a6c565b905092915050565b600060c0820190508181036000830152612d638189612b2b565b90508181036020830152612d778188612ca5565b90508181036040830152612d8b8187612a6c565b90508181036060830152612d9f8186612c1a565b90508181036080830152612db381856128d8565b905081810360a0830152612dc781846128d8565b9050979650505050505050565b60006020820190508181036000830152612dee8184612c1a565b905092915050565b6000602082019050612e0b6000830184612ccf565b92915050565b6000604051905081810181811067ffffffffffffffff82111715612e3457600080fd5b8060405250919050565b600067ffffffffffffffff821115612e5557600080fd5b602082029050602081019050919050565b600067ffffffffffffffff821115612e7d57600080fd5b601f19601f8301169050602081019050919050565b600067ffffffffffffffff821115612ea957600080fd5b601f19601f8301169050602081019050919050565b6000819050602082019050919050565b6000819050602082019050919050565b600081519050919050565b600081519050919050565b600081519050919050565b600081519050919050565b6000602082019050919050565b6000602082019050919050565b600082825260208201905092915050565b600082825260208201905092915050565b600082825260208201905092915050565b600081905092915050565b6000612f6d82612f80565b9050919050565b60008115159050919050565b600073ffffffffffffffffffffffffffffffffffffffff82169050919050565b6000819050919050565b82818337600083830152505050565b60005b83811015612fd7578082015181840152602081019050612fbc565b83811115612fe6576000848401525b50505050565b6000601f19601f8301169050919050565b61300681612f74565b811461301157600080fd5b5056fea365627a7a7231582062c7e9a80d3fb0c8258579affaa2166eb2fd1cac98fa8205e5346cd79c31a0656c6578706572696d656e74616cf564736f6c63430005100040",
  "source": "pragma solidity >=0.4.25 <0.7.0;\npragma experimental ABIEncoderV2;\n\ncontract Certificate {\n\n\tuint256 public version = 1;\n\n\tstruct Project {\n\t\tstring id;\n\t\tstring name;\n\t\tstring proposal_url;\n\t\tstring proposal_drive_id;\n\t\tstring proposal_name;\n\t\tstring creatorId;\n\t\tstring tutorId;\n\t\tbool exists;\n\t\tbool locked;\n\t}\n\n\tstruct Type {\n\t\tstring name;\n\t}\n\n\tstruct Contributor {\n\t\tstring id;\n\t\tstring name;\n\t\tstring surname;\n\t\tstring email;\n\t\tstring padron;\n\t\tstring[] careers;\n\t\tbool exists;\n\t}\n\n\tstruct Tutor {\n\t\tstring id;\n\t\tstring name;\n\t\tstring surname;\n\t\tstring email;\n\t\tbool exists;\n\t}\n\n\taddress public auditor;\n\n\tmapping(string => Project) projects_set;\n\tmapping(string => Contributor) contributors_set;\n\tmapping(string => Tutor) tutors_set;\n\n\tmapping(string => Type) project_type_set;\n\tmapping(string => Contributor) project_owner_set;\n\tmapping(string => Tutor) project_tutor_set;\n\tmapping(string => string[]) project_contributors_set;\n\tmapping(string => string[]) project_cotutors_set;\n\n\tconstructor() public {\n\t\tauditor = msg.sender;\n\t}\n\n\tfunction createContributor(Contributor memory _data) public {\n\t\t//check that doesn't exists\n\t\tassert(_data.exists == false);\n\t\tassert(contributors_set[_data.id].exists == false);\n\t\tcontributors_set[_data.id] = _data;\n\t\tcontributors_set[_data.id].exists = true;\n\t}\n\n\tfunction getContributor(string memory _id) public view returns(Contributor memory contributor){\n\t\t//check that contributor exists\n\t\tcontributor = contributors_set[_id];\n\t\tassert(contributor.exists);\n\t}\n\n\tfunction createTutor(Tutor memory _data) public {\n\t\t//check that doesn't exists\n\t\tassert(_data.exists == false);\n\t\tassert(tutors_set[_data.id].exists == false);\n\t\ttutors_set[_data.id] = _data;\n\t\ttutors_set[_data.id].exists = true;\n\t}\n\n\tfunction getTutor(string memory _id) public view returns(Tutor memory tutor){\n\t\t//check that tutor exists\n\t\ttutor = tutors_set[_id];\n\t\tassert(tutor.exists);\n\t}\n\n\tfunction createProject(string memory _type_name, Project memory _data) public {\n\t\t//check that doesn't exists\n\t\tassert(projects_set[_data.id].exists == false);\n\t\t//check that owner exists\n\t\tassert(contributors_set[_data.creatorId].exists == true);\n\t\t//check that tutor exists\n\t\tassert(tutors_set[_data.tutorId].exists == true);\n\n\t\tprojects_set[_data.id] = _data;\n\t\tproject_type_set[_data.id] = Type(_type_name);\n\t\tprojects_set[_data.id].exists = true;\n\t}\n\n\tfunction addProjectContributor(string memory _project_id, string memory _contributor_id) public {\n\t\t//check that project exists\n\t\tassert(projects_set[_project_id].exists);\n\t\t//check that contributor exists\n\t\tassert(contributors_set[_contributor_id].exists);\n\n\t\tproject_contributors_set[_project_id].push(_contributor_id);\n\t}\n\n\tfunction addProjectTutor(string memory _project_id, string memory _tutor_id) public {\n\t\t//check that project exists\n\t\tassert(projects_set[_project_id].exists);\n\t\t//check that contributor exists\n\t\tassert(tutors_set[_tutor_id].exists);\n\n\t\tproject_cotutors_set[_project_id].push(_tutor_id);\n\t}\n\n\tfunction getProject(string memory _id) public view returns(Project memory project,\n\t\t\t\t\t\t\t\t\t\t\t\t\t\t\t   Type memory oftype,\n\t\t\t\t\t\t\t\t\t\t\t\t\t\t       Contributor memory creator,\n\t\t\t\t\t\t\t\t\t\t\t\t\t\t\t   Tutor memory tutor,\n\t\t\t\t\t\t\t\t\t\t\t\t\t\t\t   string[] memory contributors,\n\t\t\t\t\t\t\t\t\t\t\t\t\t\t\t   string[] memory cotutors){\n\t\t//check that project exists\n\t\tproject = projects_set[_id];\n\t\tassert(project.exists);\n\t\toftype = project_type_set[_id];\n\t\tcreator = contributors_set[project.creatorId];\n\t\ttutor = tutors_set[project.tutorId];\n\t\tcontributors = project_contributors_set[_id];\n\t\tcotutors = project_cotutors_set[_id];\n\t}\n}\n",
  "sourcePath": "/Users/mvega/node-certificate/ledger/contracts/Certificate.sol",
  "compiler": {
    "name": "solc",
    "version": "0.5.16+commit.9c3226ce.Emscripten.clang"
  },
  "schemaVersion": "3.1.0",
  "updatedAt": "2020-05-22T14:38:30.779Z",
  "networkType": "ethereum",
  "devdoc": {
    "methods": {}
  },
  "userdoc": {
    "methods": {}
  }
}